ACAM4JS
HFDTE260712
HFFXA050
HFPLTPILOT:P-Philippe RAVET        
HFGTYGLIDERTYPE:DG 808      
HFGIDGLIDERID:PR          
HFDTM100GPSDATUM:
HFRFWFIRMWAREVERSION:F2.6
HFRHWHARDWAREVERSION:300 Series Version 2
HFFTYFRTYPE:CAMBRIDGE AERO INSTRUMENTS, 302+
HFGPS:GARMIN,LVS-25,12,18000
HFPRSPRESSALTSENSOR:INTERSEMA, MS5534-AP, 20000
I033638FXA3941ENL4247REX
LCAMSBVER:5FWVER:F26300
B0844234336616N00641542EA0020000227000996000000
B0844254336616N00641542EA0020000228000996000000
B0844274336616N00641542EA0020000228000996000000
B0844294336616N00641542EA0020000228000996000000
B0844314336616N00641542EA0020000228000996000000
B0844334336616N00641542EA0020000228000996000000
B0844354336616N00641542EA0019900229000996000000
B0844374336616N00641542EA0019900229000996000000
B0844394336616N00641542EA0019900229000996000000
B0844414336616N00641542EA0019900228000996000000
B0844434336616N00641542EA0019900228000996000000
B0844454336616N00641542EA0020000228000996000000
B0844474336616N00641542EA0019900228000996000000
B0844494336615N00641543EA0019900229000996000000
B0844514336615N00641546EA0019900229000996000000
B0844564336609N00641583EA0020000228000996000000
B0845004336600N00641642EA0020000227000996000000
B0845044336589N00641720EA0020000227000996000000
B0845084336578N00641808EA0020900243000996000000
B0845124336565N00641886EA0022800270000996000000
B0845164336550N00641957EA0025200293000996000000
B0845204336531N00642023EA0027200308000996000000
B0845244336513N00642096EA0028300320000996000000
B0845284336491N00642167EA0029700334000996000000
B0845324336469N00642239EA0030800346000996000000
B0845364336450N00642311EA0032200359000996000000
B0845404336434N00642387EA0033400372000996000000
B0845444336418N00642464EA0034600385000996000000
B0845484336403N00642542EA0036000400000996000000
B0845524336385N00642622EA0037500419000996000000
B0845564336362N00642699EA0039400442000996000000
B0846004336340N00642773EA0041700461000996000000
B0846044336317N00642844EA0043300475000996000000
B0846084336295N00642920EA0044400485000996000000
B0846124336273N00642994EA0045300496000996000000
B0846164336252N00643069EA0046500511000996000000
B0846204336229N00643143EA0048000524000996000000
B0846244336201N00643216EA0049100537000996000000
B0846284336160N00643272EA0050600555000996000000
B0846324336109N00643309EA0052200570000996000000
B0846364336053N00643320EA0053500581000996000000
B0846404335996N00643310EA0054600590000996000000
B0846444335944N00643272EA0055800605000996000000
B0846484335904N00643211EA0057200620000996000000
B0846524335879N00643137EA0058400635000996000000
B0846564335870N00643055EA0059800648000996000000
B0847004335875N00642976EA0061200665000996000000
B0847044335892N00642903EA0062800679000996000000
B0847084335918N00642831EA0064200693000996000000
B0847124335952N00642770EA0065800711000996000000
B0847164335989N00642714EA0067400725000996000000
B0847204336034N00642665EA0068900739000996000000
B0847244336083N00642627EA0069800751000996000000
B0847284336139N00642600EA0071000766000996000000
B0847324336193N00642577EA0072400778000996000000
B0847364336247N00642555EA0073600791000996000000
B0847404336301N00642536EA0075000804000996000000
B0847444336359N00642522EA0076300819000996000000
B0847484336414N00642510EA0077700834000996000000
B0847524336472N00642503EA0079100848000996000000
B0847564336529N00642499EA0080600864000996000000
B0848004336585N00642496EA0081800879000996000000
B0848044336642N00642496EA0083200890000996000000
B0848084336702N00642493EA0084300904000996000000
B0848124336762N00642487EA0085800920000996000000
B0848164336820N00642478EA0087200936000996000000
B0848204336879N00642469EA0088700953000996000000
B0848244336936N00642460EA0090600968000996000000
B0848284336994N00642449EA0092000982000996000000
B0848324337053N00642439EA0093000997000996000000
B0848364337110N00642427EA0094701012000996000000
B0848404337168N00642417EA0096201027000996000000
B0848444337226N00642408EA0097601042000996000000
B0848484337284N00642400EA0098901054000996000000
B0848524337343N00642393EA0100201069000996000000
B0848564337401N00642387EA0101601084000996000000
B0849004337458N00642379EA0103001098000996000000
B0849044337514N00642371EA0104301112000996000000
B0849084337570N00642361EA0105301127000996000000
B0849124337625N00642352EA0106701141000996000000
B0849164337679N00642340EA0108001153000996000000
B0849204337734N00642330EA0109201165000996000000
B0849244337790N00642318EA0110601179000996000000
B0849284337847N00642308EA0111801194000996000000
B0849324337903N00642297EA0113201207000996000000
B0849364337959N00642288EA0114501220000996000000
B0849404338015N00642278EA0115801233000996000000
B0849444338071N00642265EA0116901246000996000000
B0849484338125N00642250EA0118201260000996000000
B0849524338179N00642237EA0119501274000996000000
B0849564338232N00642223EA0120901289000996000000
B0850004338285N00642210EA0122101300000996000000
B0850044338340N00642197EA0123301313000996000000
B0850084338394N00642183EA0124501325000996000000
B0850124338449N00642170EA0125701337000996000000
B0850164338502N00642159EA0126601348000996000000
B0850204338558N00642148EA0127701360000996000000
B0850244338613N00642140EA0129101375000996000000
B0850284338670N00642136EA0130401386000996000000
B0850324338726N00642137EA0131501397000996000000
B0850364338784N00642141EA0132501409000996000000
B0850404338842N00642149EA0133801421000996000000
B0850444338899N00642159EA0135001433000996000000
B0850484338956N00642170EA0135901443000996000000
B0850524339012N00642183EA0137101457000996000000
B0850564339065N00642200EA0138401470000996000000
B0851004339118N00642222EA0139501480000996000000
B0851044339172N00642250EA0140501493000996000000
B0851084339224N00642283EA0141601504000996000000
B0851124339276N00642321EA0142801516000996000000
B0851164339328N00642361EA0144001528000996000000
B0851204339380N00642405EA0145201542000996000000
B0851244339429N00642451EA0146601558000996000000
B0851284339477N00642497EA0148001571000996000000
B0851324339525N00642544EA0149101582000996000000
B0851364339571N00642599EA0150201595000996000000
B0851404339618N00642653EA0151301606000996000000
B0851444339663N00642709EA0152701620000996000000
B0851484339711N00642763EA0153901633000996000000
B0851524339758N00642816EA0154901645000996000000
B0851564339806N00642865EA0156101658000996000000
B0852004339857N00642912EA0157201669000996000000
B0852044339909N00642958EA0158201681000996000000
B0852084339961N00643000EA0159401695000996000000
B0852124340014N00643041EA0160901710000996000000
B0852164340065N00643080EA0162301725000996000000
B0852204340117N00643116EA0163501737000996000000
B0852244340169N00643151EA0164801751000996000000
B0852284340218N00643184EA0166501765000996000000
B0852324340268N00643216EA0167401775000996000000
B0852364340317N00643249EA0168801788000996000000
B0852404340368N00643283EA0169801797000996000000
B0852444340420N00643316EA0170801809000996000000
B0852484340472N00643353EA0171901821000996000000
B0852524340521N00643398EA0173001833000996000000
B0852564340569N00643449EA0173901845000996000000
B0853004340617N00643501EA0175001857000996000000
B0853044340664N00643554EA0176201869000996000000
B0853084340711N00643611EA0177401881000996000000
B0853124340756N00643670EA0178501894000996000000
B0853164340803N00643726EA0179801907000996000000
B0853204340851N00643778EA0181101918000996000000
B0853244340901N00643823EA0182201930000996000000
B0853284340953N00643861EA0183401942000996000000
B0853324341007N00643888EA0184301952000996000000
B0853364341062N00643910EA0185401964000996000000
B0853404341117N00643927EA0186801978000996000000
B0853444341170N00643943EA0187901992000996000000
B0853484341224N00643956EA0189102000000996000000
B0853524341282N00643966EA0189802009000996000000
B0853564341338N00643972EA0191002023000996000000
B0854004341393N00643973EA0192202035000996000000
B0854044341448N00643968EA0193302047000996000000
B0854084341503N00643964EA0194602058000996000000
B0854124341559N00643959EA0195402069000996000000
B0854164341616N00643955EA0196602079000996000000
B0854204341673N00643952EA0197502088000996000000
B0854244341733N00643953EA0198202098000996000000
B0854284341791N00643956EA0199402109000996000000
B0854324341848N00643961EA0200402120000996000000
B0854364341907N00643966EA0201302131000996000000
B0854404341964N00643973EA0202402141000996000000
B0854444342023N00643979EA0203402153000996000000
B0854484342081N00643987EA0204602166000996000000
B0854524342138N00643991EA0205902180000996000000
B0854564342196N00643992EA0207002192000996000000
B0855004342253N00643992EA0208402205000996000000
B0855044342311N00643992EA0209302215000996000000
B0855084342372N00643996EA0210002219000996000000
B0855124342433N00644004EA0210202219000996000000
B0855164342493N00644017EA0209902214000996000000
B0855204342554N00644031EA0209402207000996000000
B0855244342615N00644047EA0208902204000996000000
B0855284342675N00644064EA0208602198000996000000
B0855324342734N00644085EA0207802190000996000000
B0855364342792N00644105EA0207002185000996000000
B0855404342852N00644124EA0206702179000996000000
B0855444342911N00644137EA0206102171000996000000
B0855484342969N00644143EA0205502164000996000000
B0855524343028N00644147EA0204802161000996000000
B0855564343086N00644155EA0204302150000996000000
B0856004343146N00644168EA0203102140000824000000
B0856044343202N00644185EA0202702140000620000000
B0856084343259N00644203EA0202202131000524000000
B0856124343317N00644215EA0201402124000388000000
B0856164343377N00644230EA0200802127000276000000
B0856204343433N00644250EA0200902125000212000000
B0856244343492N00644273EA0200402116000156000000
B0856284343554N00644295EA0199702111000132000000
B0856324343616N00644323EA0199202105000112000000
B0856364343681N00644354EA0198502098000096000000
B0856404343750N00644384EA0197702087000096000000
B0856444343823N00644415EA0196602073000100000000
B0856484343902N00644433EA0195502067000100000000
B0856524343980N00644430EA0195202067000096000000
B0856564344056N00644415EA0195002064000100000000
B0857004344127N00644384EA0195002064000096000000
B0857044344195N00644346EA0195002064000096000000
B0857084344253N00644293EA0194902065000092000000
B0857124344308N00644234EA0195602080000096000000
B0857164344350N00644176EA0196802087000088000000
B0857204344378N00644107EA0197202090000084000000
B0857244344416N00644040EA0196602073000080000000
B0857284344458N00643964EA0195402066000080000000
B0857324344498N00643886EA0196102081000092000000
B0857364344529N00643809EA0197002092000100000000
B0857404344523N00643725EA0197802093000108000000
B0857444344473N00643662EA0197602089000100000000
B0857484344399N00643653EA0197402087000088000000
B0857524344326N00643696EA0197202086000096000000
B0857564344283N00643786EA0197202086000084000000
B0858004344277N00643890EA0197302087000092000000
B0858044344291N00643985EA0197402088000112000000
B0858084344321N00644068EA0197902098000104000000
B0858124344367N00644131EA0198202094000096000000
B0858164344428N00644155EA0198102095000088000000
B0858204344491N00644147EA0197802092000084000000
B0858244344558N00644141EA0197802096000076000000
B0858284344623N00644130EA0197902096000080000000
B0858324344682N00644118EA0198602106000084000000
B0858364344744N00644131EA0198802101000092000000
B0858404344806N00644151EA0198202097000088000000
B0858444344871N00644155EA0198002094000084000000
B0858484344935N00644144EA0197702089000080000000
B0858524344997N00644121EA0197502087000080000000
B0858564345059N00644096EA0197102083000080000000
B0859004345124N00644073EA0196902081000084000000
B0859044345189N00644052EA0196602080000084000000
B0859084345254N00644030EA0196502077000084000000
B0859124345316N00644001EA0196202075000088000000
B0859164345374N00643968EA0196002072000088000000
B0859204345434N00643934EA0195402060000088000000
B0859244345498N00643897EA0194502049000092000000
B0859284345565N00643860EA0193502043000092000000
B0859324345633N00643821EA0193202042000096000000
B0859364345699N00643778EA0192902041000096000000
B0859404345765N00643734EA0193202046000100000000
B0859444345829N00643695EA0193602051000092000000
B0859484345891N00643656EA0193602047000092000000
B0859524345956N00643615EA0193302043000088000000
B0859564346023N00643575EA0192902036000088000000
B0900004346089N00643528EA0192202028000088000000
B0900044346155N00643481EA0191402022000092000000
B0900084346224N00643441EA0191002014000096000000
B0900124346294N00643401EA0190002003000100000000
B0900164346365N00643359EA0189101998000104000000
B0900204346432N00643318EA0188701992000112000000
B0900244346502N00643283EA0187901981000116000000
B0900284346574N00643255EA0187101980000112000000
B0900324346644N00643234EA0187101979000112000000
B0900364346709N00643203EA0187001976000108000000
B0900404346769N00643154EA0186701975000096000000
B0900444346827N00643098EA0186501972000096000000
B0900484346879N00643034EA0186501973000096000000
B0900524346934N00642972EA0186201968000096000000
B0900564346996N00642919EA0185801964000096000000
B0901004347068N00642887EA0185501962000096000000
B0901044347142N00642878EA0185501962000100000000
B0901084347216N00642881EA0185101956000100000000
B0901124347293N00642886EA0184301945000100000000
B0901164347371N00642885EA0183401940000104000000
B0901204347449N00642885EA0183201938000108000000
B0901244347529N00642887EA0182301921000112000000
B0901284347615N00642902EA0180701904000124000000
B0901324347705N00642913EA0179501895000136000000
B0901364347795N00642925EA0178501886000148000000
B0901404347886N00642952EA0177901875000156000000
B0901444347982N00642990EA0176301858000156000000
B0901484348081N00643037EA0175301856000160000000
B0901524348173N00643085EA0176101879000160000000
B0901564348254N00643133EA0177901891000148000000
B0902004348326N00643173EA0180001921000136000000
B0902044348381N00643236EA0181401922000116000000
B0902084348402N00643338EA0181501925000100000000
B0902124348384N00643440EA0182501944000092000000
B0902164348333N00643506EA0183301944000092000000
B0902204348264N00643507EA0183501950000084000000
B0902244348217N00643452EA0184301963000080000000
B0902284348212N00643377EA0185301965000080000000
B0902324348254N00643323EA0185301962000076000000
B0902364348319N00643323EA0185301967000076000000
B0902404348376N00643370EA0185901971000088000000
B0902444348413N00643457EA0185801972000088000000
B0902484348425N00643554EA0186801984000084000000
B0902524348398N00643647EA0187401985000088000000
B0902564348332N00643679EA0187501989000080000000
B0903004348274N00643636EA0187601990000076000000
B0903044348255N00643556EA0188301999000076000000
B0903084348283N00643487EA0188702000000076000000
B0903124348343N00643465EA0188802000000072000000
B0903164348406N00643511EA0188401994000072000000
B0903204348445N00643595EA0189002011000072000000
B0903244348449N00643692EA0190102018000080000000
B0903284348406N00643765EA0190502018000080000000
B0903324348342N00643774EA0190402016000072000000
B0903364348291N00643723EA0190102010000072000000
B0903404348269N00643640EA0190002017000076000000
B0903444348282N00643561EA0190802024000076000000
B0903484348334N00643515EA0190702016000076000000
B0903524348403N00643531EA0190302015000080000000
B0903564348465N00643582EA0190302020000080000000
B0904004348512N00643658EA0191202026000084000000
B0904044348525N00643760EA0191502031000080000000
B0904084348497N00643847EA0191902032000076000000
B0904124348434N00643877EA0191702028000072000000
B0904164348374N00643847EA0191502027000072000000
B0904204348345N00643769EA0191202024000072000000
B0904244348351N00643680EA0191602036000080000000
B0904284348384N00643613EA0192602043000076000000
B0904324348445N00643589EA0192702043000076000000
B0904364348506N00643624EA0193002049000076000000
B0904404348543N00643708EA0193202042000080000000
B0904444348530N00643806EA0192902050000080000000
B0904484348488N00643873EA0193302047000072000000
B0904524348424N00643877EA0192602037000072000000
B0904564348377N00643818EA0192202035000072000000
B0905004348369N00643732EA0192702047000076000000
B0905044348390N00643660EA0193702057000076000000
B0905084348437N00643606EA0193802050000072000000
B0905124348491N00643559EA0192702030000080000000
B0905164348562N00643524EA0190602005000120000000
B0905204348644N00643498EA0188801994000128000000
B0905244348724N00643475EA0188301989000132000000
B0905284348807N00643452EA0187501982000152000000
B0905324348893N00643424EA0187101985000140000000
B0905364348974N00643394EA0187801993000124000000
B0905404349047N00643366EA0188501998000116000000
B0905444349122N00643346EA0188001986000116000000
B0905484349199N00643344EA0187201979000120000000
B0905524349275N00643346EA0187101987000116000000
B0905564349342N00643350EA0188602003000104000000
B0906004349404N00643366EA0188701992000120000000
B0906044349472N00643402EA0188001993000108000000
B0906084349543N00643433EA0188302000000100000000
B0906124349608N00643458EA0189402008000104000000
B0906164349667N00643511EA0189402004000100000000
B0906204349732N00643556EA0188902000000096000000
B0906244349806N00643563EA0188802001000104000000
B0906284349873N00643536EA0189302013000096000000
B0906324349925N00643479EA0190302021000092000000
B0906364349941N00643392EA0191402040000088000000
B0906404349910N00643324EA0193202055000076000000
B0906444349847N00643316EA0194102062000076000000
B0906484349794N00643383EA0194502065000080000000
B0906524349785N00643480EA0195802079000076000000
B0906564349819N00643563EA0196402090000076000000
B0907004349879N00643592EA0197302091000072000000
B0907044349938N00643553EA0197202089000072000000
B0907084349970N00643472EA0197902110000076000000
B0907124349958N00643396EA0200202131000076000000
B0907164349905N00643361EA0201202136000072000000
B0907204349845N00643401EA0202202148000072000000
B0907244349820N00643488EA0202902153000072000000
B0907284349845N00643578EA0204002170000072000000
B0907324349902N00643619EA0204802167000068000000
B0907364349966N00643591EA0204802177000072000000
B0907404350003N00643523EA0205902190000072000000
B0907444350006N00643445EA0207002194000072000000
B0907484349972N00643380EA0207302196000076000000
B0907524349908N00643354EA0207402203000076000000
B0907564349847N00643384EA0208702219000072000000
B0908004349814N00643472EA0209602222000072000000
B0908044349833N00643574EA0210402239000072000000
B0908084349886N00643628EA0211802248000068000000
B0908124349949N00643611EA0212302250000068000000
B0908164349990N00643548EA0212702255000072000000
B0908204349994N00643465EA0213102260000076000000
B0908244349962N00643394EA0214102279000076000000
B0908284349905N00643379EA0215602293000080000000
B0908324349855N00643428EA0216602299000076000000
B0908364349841N00643522EA0217202302000072000000
B0908404349872N00643610EA0217702310000072000000
B0908444349933N00643647EA0218402312000072000000
B0908484349994N00643610EA0218402317000072000000
B0908524350027N00643537EA0219302323000072000000
B0908564350025N00643450EA0219502320000076000000
B0909004349989N00643380EA0219002313000076000000
B0909044349936N00643342EA0217802295000116000000
B0909084349872N00643354EA0215902273000144000000
B0909124349814N00643410EA0214202262000148000000
B0909164349768N00643492EA0214402277000124000000
B0909204349729N00643571EA0215602289000104000000
B0909244349695N00643660EA0216102287000092000000
B0909284349699N00643766EA0216202293000088000000
B0909324349739N00643851EA0216702296000080000000
B0909364349801N00643891EA0217002294000076000000
B0909404349866N00643877EA0216502292000076000000
B0909444349908N00643816EA0216302289000076000000
B0909484349925N00643734EA0216402292000076000000
B0909524349923N00643648EA0217302315000076000000
B0909564349901N00643574EA0219002323000076000000
B0910004349842N00643558EA0220502344000080000000
B0910044349791N00643618EA0221902352000076000000
B0910084349791N00643718EA0222302350000076000000
B0910124349843N00643788EA0222302356000068000000
B0910164349908N00643792EA0223002362000068000000
B0910204349954N00643740EA0223602370000072000000
B0910244349959N00643662EA0224102372000072000000
B0910284349925N00643593EA0224502382000072000000
B0910324349862N00643575EA0225802396000080000000
B0910364349802N00643618EA0225902378000076000000
B0910404349769N00643721EA0224402377000084000000
B0910444349772N00643826EA0226002401000084000000
B0910484349810N00643909EA0227002401000080000000
B0910524349873N00643943EA0227102401000080000000
B0910564349933N00643922EA0226902394000080000000
B0911004349980N00643864EA0226802403000076000000
B0911044350014N00643799EA0227602409000076000000
B0911084350022N00643718EA0227502405000080000000
B0911124349996N00643644EA0228502423000088000000
B0911164349949N00643598EA0228902414000100000000
B0911204349881N00643605EA0227302393000120000000
B0911244349821N00643671EA0226102388000104000000
B0911284349786N00643770EA0225702386000100000000
B0911324349786N00643884EA0225402386000092000000
B0911364349815N00643987EA0226202400000088000000
B0911404349864N00644060EA0226902401000080000000
B0911444349928N00644103EA0227002396000088000000
B0911484349997N00644112EA0226502394000080000000
B0911524350066N00644105EA0226902406000080000000
B0911564350131N00644102EA0227102397000080000000
B0912004350201N00644095EA0226102387000084000000
B0912044350276N00644089EA0225602386000088000000
B0912084350354N00644092EA0225302379000088000000
B0912124350434N00644099EA0224802376000092000000
B0912164350513N00644094EA0224402375000096000000
B0912204350592N00644082EA0224302369000096000000
B0912244350670N00644070EA0224102375000096000000
B0912284350743N00644092EA0224902387000100000000
B0912324350809N00644109EA0226502408000092000000
B0912364350864N00644146EA0227802411000084000000
B0912404350916N00644190EA0227702405000084000000
B0912444350978N00644212EA0226802392000080000000
B0912484351047N00644211EA0225902386000076000000
B0912524351117N00644199EA0225102378000080000000
B0912564351193N00644196EA0224602372000088000000
B0913004351270N00644208EA0224002362000088000000
B0913044351351N00644226EA0223002350000092000000
B0913084351433N00644252EA0222002347000100000000
B0913124351517N00644282EA0221702345000104000000
B0913164351597N00644312EA0221502339000108000000
B0913204351679N00644342EA0221002333000112000000
B0913244351761N00644373EA0220702337000112000000
B0913284351843N00644390EA0220602330000112000000
B0913324351925N00644395EA0219702312000116000000
B0913364352009N00644393EA0218002297000132000000
B0913404352091N00644381EA0217002293000152000000
B0913444352173N00644388EA0216702293000144000000
B0913484352251N00644410EA0217302305000128000000
B0913524352323N00644434EA0218002312000116000000
B0913564352391N00644456EA0218702316000108000000
B0914004352460N00644476EA0218202305000096000000
B0914044352531N00644515EA0217502299000096000000
B0914084352597N00644555EA0217202293000088000000
B0914124352666N00644594EA0215902271000104000000
B0914164352742N00644637EA0214002259000120000000
B0914204352819N00644683EA0213102256000116000000
B0914244352896N00644724EA0213202256000112000000
B0914284352971N00644762EA0213102257000108000000
B0914324353047N00644801EA0213202256000108000000
B0914364353121N00644844EA0212902252000104000000
B0914404353196N00644889EA0212602250000104000000
B0914444353275N00644930EA0212302241000104000000
B0914484353359N00644949EA0211602241000112000000
B0914524353438N00644960EA0211802240000112000000
B0914564353515N00644948EA0211402233000108000000
B0915004353587N00644910EA0210702224000112000000
B0915044353654N00644849EA0209502207000120000000
B0915084353712N00644767EA0207602188000148000000
B0915124353772N00644675EA0205502166000160000000
B0915164353836N00644579EA0204002160000164000000
B0915204353901N00644482EA0203902169000164000000
B0915244353948N00644399EA0207302227000148000000
B0915284354006N00644372EA0210502233000116000000
B0915324354062N00644424EA0210102222000100000000
B0915364354068N00644524EA0209602220000088000000
B0915404354018N00644599EA0209302214000088000000
B0915444353950N00644615EA0210202233000080000000
B0915484353896N00644570EA0211202241000076000000
B0915524353873N00644484EA0211302238000076000000
B0915564353909N00644407EA0211902248000076000000
B0916004353974N00644415EA0212002242000088000000
B0916044354010N00644497EA0212002248000088000000
B0916084354007N00644589EA0212602250000100000000
B0916124353958N00644655EA0212502256000092000000
B0916164353893N00644645EA0213402265000084000000
B0916204353857N00644571EA0213802264000076000000
B0916244353859N00644477EA0213702265000076000000
B0916284353898N00644411EA0214702280000080000000
B0916324353959N00644408EA0215002274000088000000
B0916364354001N00644480EA0214902276000080000000
B0916404353994N00644575EA0214602270000092000000
B0916444353936N00644635EA0214502279000096000000
B0916484353872N00644619EA0215802293000088000000
B0916524353829N00644551EA0216402288000076000000
B0916564353824N00644462EA0216502296000080000000
B0917004353858N00644390EA0216502285000076000000
B0917044353916N00644360EA0215702280000088000000
B0917084353980N00644386EA0215002275000096000000
B0917124354040N00644434EA0215002282000092000000
B0917164354094N00644489EA0215802288000088000000
B0917204354154N00644532EA0215702280000084000000
B0917244354230N00644532EA0215002275000080000000
B0917284354299N00644502EA0215002282000080000000
B0917324354357N00644460EA0215702285000076000000
B0917364354404N00644403EA0215602278000076000000
B0917404354440N00644328EA0214802272000076000000
B0917444354468N00644243EA0214502268000080000000
B0917484354487N00644148EA0213402248000084000000
B0917524354509N00644046EA0211602233000100000000
B0917564354540N00643944EA0211102234000104000000
B0918004354572N00643845EA0210902228000104000000
B0918044354607N00643744EA0210102213000108000000
B0918084354648N00643643EA0208802206000116000000
B0918124354692N00643544EA0208302201000132000000
B0918164354744N00643450EA0207602193000132000000
B0918204354789N00643350EA0207402198000128000000
B0918244354828N00643249EA0207302191000124000000
B0918284354869N00643147EA0206202178000124000000
B0918324354915N00643043EA0205202169000132000000
B0918364354958N00642935EA0204602159000140000000
B0918404354999N00642821EA0203502148000140000000
B0918444355047N00642704EA0202302135000148000000
B0918484355099N00642592EA0201602137000160000000
B0918524355153N00642483EA0201502138000156000000
B0918564355207N00642386EA0202102137000156000000
B0919004355268N00642291EA0200802119000156000000
B0919044355340N00642198EA0199402107000180000000
B0919084355414N00642105EA0198202086000192000000
B0919124355491N00642002EA0196202064000192000000
B0919164355563N00641894EA0195402089000192000000
B0919204355613N00641807EA0199502141000168000000
B0919244355657N00641726EA0202202147000144000000
B0919284355710N00641656EA0202602147000120000000
B0919324355765N00641586EA0202502143000108000000
B0919364355813N00641507EA0201802135000100000000
B0919404355843N00641413EA0201702138000096000000
B0919444355862N00641316EA0201202126000096000000
B0919484355881N00641210EA0200102114000096000000
B0919524355900N00641102EA0199402109000100000000
B0919564355918N00640992EA0199002105000104000000
B0920004355938N00640881EA0198202092000112000000
B0920044355961N00640767EA0196902078000120000000
B0920084355991N00640655EA0196002071000132000000
B0920124356020N00640541EA0195002057000136000000
B0920164356060N00640424EA0193102036000148000000
B0920204356104N00640306EA0191802028000156000000
B0920244356145N00640185EA0191402026000156000000
B0920284356182N00640065EA0191402031000152000000
B0920324356221N00639951EA0191502025000144000000
B0920364356259N00639831EA0190602010000152000000
B0920404356295N00639706EA0189402003000156000000
B0920444356327N00639585EA0189502018000160000000
B0920484356354N00639472EA0190202015000148000000
B0920524356382N00639355EA0189301998000148000000
B0920564356416N00639234EA0188001990000152000000
B0921004356451N00639115EA0187301983000152000000
B0921044356489N00638998EA0186701973000156000000
B0921084356531N00638889EA0186901994000160000000
B0921124356558N00638804EA0190302031000140000000
B0921164356585N00638729EA0191402026000120000000
B0921204356632N00638660EA0190802014000104000000
B0921244356689N00638591EA0189802005000108000000
B0921284356750N00638525EA0189702016000112000000
B0921324356805N00638463EA0190802029000104000000
B0921364356870N00638440EA0190902016000104000000
B0921404356925N00638504EA0189502004000120000000
B0921444356908N00638604EA0189302010000108000000
B0921484356854N00638669EA0190802029000100000000
B0921524356791N00638690EA0191702034000092000000
B0921564356727N00638661EA0191802036000092000000
B0922004356694N00638584EA0193102057000080000000
B0922044356720N00638509EA0193802049000080000000
B0922084356784N00638499EA0192902038000084000000
B0922124356826N00638577EA0192602046000080000000
B0922164356810N00638669EA0193602062000080000000
B0922204356759N00638726EA0194702061000080000000
B0922244356692N00638734EA0195102078000084000000
B0922284356645N00638679EA0196502086000080000000
B0922324356642N00638596EA0196502077000080000000
B0922364356685N00638539EA0195802069000088000000
B0922404356750N00638548EA0194802060000092000000
B0922444356785N00638636EA0194602069000104000000
B0922484356783N00638730EA0196102091000100000000
B0922524356756N00638816EA0197002092000092000000
B0922564356709N00638877EA0198402114000088000000
B0923004356652N00638882EA0199502116000084000000
B0923044356610N00638830EA0200202129000080000000
B0923084356614N00638753EA0200802123000076000000
B0923124356662N00638700EA0200102118000072000000
B0923164356727N00638712EA0199802117000080000000
B0923204356770N00638781EA0200502129000088000000
B0923244356770N00638870EA0201002130000084000000
B0923284356728N00638938EA0200802126000092000000
B0923324356662N00638950EA0200502127000096000000
B0923364356609N00638915EA0202502154000096000000
B0923404356588N00638844EA0203502161000088000000
B0923444356609N00638772EA0203302149000076000000
B0923484356665N00638733EA0202602138000096000000
B0923524356731N00638760EA0201302127000112000000
B0923564356770N00638839EA0201702152000108000000
B0924004356779N00638929EA0203202159000112000000
B0924044356754N00639008EA0204002158000108000000
B0924084356696N00639055EA0202902141000108000000
B0924124356627N00639045EA0202702154000104000000
B0924164356579N00638993EA0204102168000108000000
B0924204356559N00638916EA0205002171000100000000
B0924244356575N00638835EA0204202157000108000000
B0924284356632N00638790EA0203102145000144000000
B0924324356701N00638820EA0201802131000148000000
B0924364356743N00638908EA0201602145000124000000
B0924404356753N00639004EA0202902157000116000000
B0924444356730N00639095EA0204002164000108000000
B0924484356674N00639152EA0203602154000104000000
B0924524356610N00639154EA0203702165000104000000
B0924564356558N00639111EA0203802157000100000000
B0925004356525N00639039EA0204302173000100000000
B0925044356525N00638961EA0204602164000088000000
B0925084356570N00638902EA0203702155000100000000
B0925124356639N00638904EA0202802143000108000000
B0925164356694N00638976EA0201802132000128000000
B0925204356715N00639081EA0201902150000112000000
B0925244356705N00639180EA0203102163000104000000
B0925284356658N00639246EA0204102165000100000000
B0925324356598N00639260EA0203802154000092000000
B0925364356540N00639225EA0203002144000104000000
B0925404356505N00639149EA0202302147000116000000
B0925444356497N00639074EA0203402158000100000000
B0925484356512N00639003EA0203302147000096000000
B0925524356545N00638933EA0202302139000088000000
B0925564356589N00638870EA0201602127000088000000
B0926004356642N00638807EA0199702103000112000000
B0926044356701N00638734EA0197702087000132000000
B0926084356762N00638657EA0196702073000132000000
B0926124356830N00638588EA0196202095000132000000
B0926164356892N00638531EA0198202106000120000000
B0926204356964N00638510EA0199602127000116000000
B0926244357029N00638553EA0200802129000104000000
B0926284357047N00638656EA0200802127000096000000
B0926324356996N00638722EA0200202118000096000000
B0926364356932N00638686EA0200002118000096000000
B0926404356905N00638596EA0200402127000096000000
B0926444356912N00638502EA0202002146000092000000
B0926484356964N00638444EA0202502148000092000000
B0926524357023N00638495EA0203202163000084000000
B0926564357017N00638588EA0204302165000084000000
B0927004356952N00638609EA0204602171000084000000
B0927044356912N00638536EA0205502182000080000000
B0927084356936N00638450EA0206602191000080000000
B0927124357003N00638457EA0207102195000080000000
B0927164357036N00638543EA0207802205000080000000
B0927204357004N00638619EA0208902215000080000000
B0927244356941N00638610EA0209102212000076000000
B0927284356900N00638535EA0209702227000080000000
B0927324356896N00638445EA0210602234000076000000
B0927364356932N00638370EA0210502220000076000000
B0927404356999N00638354EA0210102235000080000000
B0927444357058N00638383EA0210602220000076000000
B0927484357125N00638417EA0209102201000088000000
B0927524357204N00638431EA0206802176000092000000
B0927564357290N00638427EA0204802158000116000000
B0928004357378N00638406EA0203402149000132000000
B0928044357463N00638375EA0203102145000132000000
B0928084357550N00638337EA0201902135000140000000
B0928124357638N00638313EA0202202146000136000000
B0928164357721N00638293EA0203002152000136000000
B0928204357805N00638289EA0203102157000124000000
B0928244357888N00638288EA0203102139000120000000
B0928284357974N00638274EA0201702125000120000000
B0928324358062N00638245EA0200202115000124000000
B0928364358148N00638203EA0199602114000136000000
B0928404358235N00638154EA0198902099000144000000
B0928444358322N00638098EA0198002088000148000000
B0928484358414N00638045EA0196302074000156000000
B0928524358501N00637981EA0196102084000164000000
B0928564358563N00637916EA0199202122000152000000
B0929004358628N00637858EA0198902096000144000000
B0929044358702N00637791EA0196702072000140000000
B0929084358781N00637717EA0195402063000144000000
B0929124358868N00637652EA0194202046000148000000
B0929164358955N00637585EA0193102044000152000000
B0929204359037N00637513EA0193102045000152000000
B0929244359112N00637438EA0193102046000152000000
B0929284359187N00637365EA0193002045000144000000
B0929324359259N00637290EA0192702038000144000000
B0929364359333N00637218EA0192202035000144000000
B0929404359410N00637153EA0191602022000140000000
B0929444359489N00637088EA0190602012000144000000
B0929484359573N00637030EA0189902010000148000000
B0929524359652N00636970EA0189402003000148000000
B0929564359723N00636900EA0189102001000148000000
B0930004359791N00636822EA0188701997000168000000
B0930044359852N00636731EA0188201989000160000000
B0930084359900N00636629EA0187701992000152000000
B0930124359939N00636529EA0188702011000144000000
B0930164359978N00636448EA0190902031000132000000
B0930204400019N00636376EA0191902035000116000000
B0930244400033N00636287EA0191902027000104000000
B0930284400003N00636201EA0191302024000100000000
B0930324359938N00636161EA0191002021000100000000
B0930364359868N00636200EA0190502013000096000000
B0930404359835N00636304EA0189802005000092000000
B0930444359857N00636413EA0189102000000096000000
B0930484359915N00636491EA0188902000000100000000
B0930524359982N00636533EA0189302007000104000000
B0930564400055N00636539EA0189602011000100000000
B0931004400128N00636525EA0190102019000096000000
B0931044400198N00636504EA0190602019000092000000
B0931084400272N00636504EA0190001998000096000000
B0931124400351N00636473EA0188201988000104000000
B0931164400423N00636408EA0187401981000108000000
B0931204400481N00636320EA0186401971000124000000
B0931244400526N00636218EA0185901965000132000000
B0931284400575N00636118EA0185201957000132000000
B0931324400622N00636014EA0184301944000132000000
B0931364400704N00635957EA0183601944000160000000
B0931404400791N00635926EA0183801950000148000000
B0931444400873N00635892EA0184801971000136000000
B0931484400948N00635869EA0186801990000128000000
B0931524401009N00635917EA0187901992000116000000
B0931564401000N00636016EA0187701983000104000000
B0932004400935N00636068EA0187301991000100000000
B0932044400862N00636070EA0188502000000092000000
B0932084400795N00636073EA0189102017000092000000
B0932124400747N00636138EA0190402016000088000000
B0932164400737N00636248EA0189302000000088000000
B0932204400784N00636342EA0189302016000092000000
B0932244400856N00636385EA0191102028000112000000
B0932284400930N00636389EA0191402026000108000000
B0932324400990N00636324EA0191402028000104000000
B0932364401007N00636224EA0191302024000092000000
B0932404400975N00636129EA0191102024000096000000
B0932444400921N00636064EA0191302023000108000000
B0932484400848N00636039EA0191102026000104000000
B0932524400782N00636075EA0191802040000100000000
B0932564400750N00636170EA0192502037000100000000
B0933004400773N00636281EA0192002034000100000000
B0933044400835N00636347EA0191902035000092000000
B0933084400908N00636372EA0192802053000092000000
B0933124400974N00636359EA0193602046000092000000
B0933164401033N00636296EA0192702037000100000000
B0933204401088N00636222EA0191902023000108000000
B0933244401155N00636146EA0190602012000108000000
B0933284401220N00636060EA0189402001000112000000
B0933324401289N00635979EA0188801999000116000000
B0933364401359N00635902EA0188501994000120000000
B0933404401429N00635824EA0187801984000120000000
B0933444401504N00635745EA0187401985000120000000
B0933484401580N00635667EA0187201981000124000000
B0933524401655N00635592EA0187301993000124000000
B0933564401720N00635509EA0188101989000140000000
B0934004401776N00635414EA0188202006000136000000
B0934044401832N00635334EA0189802011000120000000
B0934084401894N00635263EA0189402002000112000000
B0934124401959N00635194EA0188601992000112000000
B0934164402030N00635121EA0186701969000116000000
B0934204402096N00635029EA0185101955000120000000
B0934244402153N00634922EA0184401956000136000000
B0934284402193N00634820EA0185401977000144000000
B0934324402227N00634714EA0185801959000148000000
B0934364402262N00634597EA0184001939000144000000
B0934404402297N00634474EA0182801935000144000000
B0934444402330N00634353EA0182701933000148000000
B0934484402361N00634229EA0182001920000148000000
B0934524402392N00634101EA0180901916000152000000
B0934564402429N00633981EA0181201922000152000000
B0935004402461N00633867EA0181601932000144000000
B0935044402490N00633757EA0182301929000144000000
B0935084402517N00633651EA0182001925000136000000
B0935124402551N00633546EA0180901910000140000000
B0935164402583N00633435EA0179901898000140000000
B0935204402608N00633319EA0178801889000148000000
B0935244402634N00633205EA0177901880000160000000
B0935284402660N00633089EA0177001872000168000000
B0935324402687N00632975EA0176201865000164000000
B0935364402719N00632859EA0175701861000172000000
B0935404402762N00632749EA0175501860000156000000
B0935444402806N00632639EA0175401859000148000000
B0935484402863N00632539EA0175701870000148000000
B0935524402928N00632459EA0177001884000152000000
B0935564402996N00632387EA0177901890000144000000
B0936004403062N00632314EA0178401888000140000000
B0936044403127N00632238EA0177901881000140000000
B0936084403183N00632143EA0177301876000144000000
B0936124403243N00632049EA0176701870000152000000
B0936164403315N00631970EA0176201866000144000000
B0936204403392N00631896EA0176301872000140000000
B0936244403466N00631819EA0176701876000140000000
B0936284403542N00631750EA0177501888000144000000
B0936324403614N00631685EA0178201891000140000000
B0936364403694N00631624EA0178101888000136000000
B0936404403770N00631559EA0178001887000136000000
B0936444403844N00631486EA0177501879000136000000
B0936484403915N00631403EA0177701890000144000000
B0936524403982N00631328EA0178401890000140000000
B0936564404041N00631238EA0177901882000136000000
B0937004404093N00631137EA0177601881000136000000
B0937044404129N00631027EA0177401880000136000000
B0937084404151N00630914EA0177301878000132000000
B0937124404194N00630813EA0177501888000132000000
B0937164404270N00630752EA0178401902000120000000
B0937204404349N00630754EA0179901914000112000000
B0937244404413N00630818EA0180201904000104000000
B0937284404441N00630920EA0179501901000100000000
B0937324404397N00630998EA0179201897000104000000
B0937364404325N00631009EA0178801895000100000000
B0937404404260N00630983EA0179101904000096000000
B0937444404203N00630947EA0180101914000092000000
B0937484404160N00630881EA0180201917000088000000
B0937524404175N00630787EA0180901923000092000000
B0937564404250N00630761EA0181301925000092000000
B0938004404310N00630832EA0181701927000092000000
B0938044404315N00630936EA0182301937000092000000
B0938084404272N00631012EA0182901943000096000000
B0938124404203N00631016EA0182801939000096000000
B0938164404147N00630970EA0183101941000100000000
B0938204404117N00630884EA0182801936000096000000
B0938244404128N00630783EA0183201952000100000000
B0938284404192N00630734EA0184801966000096000000
B0938324404266N00630767EA0184801956000092000000
B0938364404288N00630868EA0185201973000092000000
B0938404404241N00630935EA0186001972000096000000
B0938444404173N00630930EA0186201984000092000000
B0938484404125N00630877EA0187401990000092000000
B0938524404127N00630786EA0187601992000088000000
B0938564404193N00630739EA0187901992000080000000
B0939004404264N00630782EA0187701981000080000000
B0939044404296N00630882EA0187401994000084000000
B0939084404283N00630977EA0188302002000084000000
B0939124404234N00631042EA0188802004000080000000
B0939164404167N00631039EA0188701997000080000000
B0939204404120N00630979EA0188802005000076000000
B0939244404107N00630892EA0188801995000076000000
B0939284404142N00630805EA0188102002000076000000
B0939324404212N00630777EA0189302013000080000000
B0939364404279N00630816EA0189802009000076000000
B0939404404305N00630912EA0189402009000080000000
B0939444404276N00630998EA0189702018000080000000
B0939484404221N00631039EA0190202017000088000000
B0939524404162N00631022EA0190102017000088000000
B0939564404111N00630965EA0189602006000080000000
B0940004404077N00630886EA0188801998000080000000
B0940044404058N00630799EA0188401993000092000000
B0940084404071N00630706EA0187801989000092000000
B0940124404125N00630639EA0187701993000088000000
B0940164404201N00630617EA0188502006000088000000
B0940204404268N00630662EA0189302011000088000000
B0940244404290N00630756EA0189702016000084000000
B0940284404253N00630826EA0190802031000084000000
B0940324404193N00630832EA0191502033000076000000
B0940364404147N00630773EA0191702034000080000000
B0940404404156N00630684EA0192202040000080000000
B0940444404215N00630626EA0192702052000088000000
B0940484404286N00630636EA0193802060000088000000
B0940524404337N00630709EA0193802049000084000000
B0940564404338N00630812EA0193202050000092000000
B0941004404301N00630884EA0194202067000092000000
B0941044404244N00630916EA0194802063000100000000
B0941084404182N00630890EA0194402065000096000000
B0941124404146N00630821EA0195402074000096000000
B0941164404155N00630735EA0195402072000092000000
B0941204404214N00630674EA0195702083000092000000
B0941244404284N00630678EA0197502101000088000000
B0941284404323N00630752EA0198002099000084000000
B0941324404303N00630840EA0198102104000088000000
B0941364404247N00630871EA0198702110000080000000
B0941404404194N00630834EA0198702107000088000000
B0941444404175N00630756EA0199202115000088000000
B0941484404205N00630674EA0199702123000088000000
B0941524404275N00630656EA0200602134000084000000
B0941564404333N00630721EA0201102131000088000000
B0942004404327N00630814EA0201402137000088000000
B0942044404279N00630873EA0201502132000084000000
B0942084404216N00630877EA0201602141000084000000
B0942124404171N00630825EA0201802137000080000000
B0942164404171N00630735EA0201502140000084000000
B0942204404205N00630657EA0202202148000080000000
B0942244404276N00630626EA0202202140000084000000
B0942284404344N00630679EA0202302149000084000000
B0942324404368N00630773EA0202902156000080000000
B0942364404350N00630858EA0203402154000080000000
B0942404404299N00630918EA0203602168000084000000
B0942444404245N00630953EA0204802165000092000000
B0942484404184N00630929EA0203702156000088000000
B0942524404155N00630852EA0203202147000092000000
B0942564404188N00630765EA0202202143000088000000
B0943004404263N00630748EA0203102161000088000000
B0943044404328N00630797EA0204402169000092000000
B0943084404340N00630896EA0205402179000088000000
B0943124404294N00630961EA0205702179000088000000
B0943164404232N00630951EA0205302167000096000000
B0943204404190N00630884EA0204602166000092000000
B0943244404185N00630795EA0204302166000088000000
B0943284404221N00630715EA0204802174000088000000
B0943324404289N00630679EA0205302176000100000000
B0943364404361N00630722EA0205402178000092000000
B0943404404400N00630814EA0205502178000088000000
B0943444404393N00630912EA0205802184000084000000
B0943484404346N00630977EA0206802196000096000000
B0943524404289N00630960EA0207402203000092000000
B0943564404277N00630877EA0207902205000092000000
B0944004404333N00630814EA0208202210000092000000
B0944044404406N00630842EA0208802216000092000000
B0944084404442N00630930EA0209302220000088000000
B0944124404440N00631024EA0209402215000088000000
B0944164404403N00631108EA0208202192000092000000
B0944204404353N00631206EA0205502162000108000000
B0944244404303N00631323EA0202702138000128000000
B0944284404263N00631454EA0201702138000160000000
B0944324404231N00631588EA0202202146000168000000
B0944364404202N00631722EA0202902156000168000000
B0944404404180N00631852EA0203702159000164000000
B0944444404160N00631982EA0203602153000164000000
B0944484404151N00632109EA0203502151000152000000
B0944524404136N00632239EA0202602145000152000000
B0944564404123N00632363EA0203802176000148000000
B0945004404115N00632470EA0206302189000132000000
B0945044404107N00632577EA0206802193000124000000
B0945084404103N00632676EA0207802207000112000000
B0945124404097N00632771EA0208402206000104000000
B0945164404098N00632870EA0207802197000100000000
B0945204404114N00632972EA0207502201000104000000
B0945244404136N00633063EA0209402233000100000000
B0945284404132N00633144EA0211502247000096000000
B0945324404082N00633206EA0211702236000088000000
B0945364404012N00633184EA0210902239000092000000
B0945404403981N00633110EA0212102257000092000000
B0945444403987N00633032EA0212902251000092000000
B0945484404021N00632954EA0212002239000088000000
B0945524404065N00632879EA0211302236000088000000
B0945564404102N00632794EA0210802229000084000000
B0946004404132N00632703EA0210602229000080000000
B0946044404153N00632608EA0211002243000088000000
B0946084404171N00632520EA0212402257000084000000
B0946124404211N00632442EA0212902256000084000000
B0946164404273N00632402EA0214102279000088000000
B0946204404327N00632452EA0216102299000080000000
B0946244404316N00632545EA0216502293000080000000
B0946284404250N00632577EA0216202293000080000000
B0946324404193N00632524EA0216702308000088000000
B0946364404181N00632439EA0218602326000084000000
B0946404404215N00632364EA0219102323000080000000
B0946444404285N00632339EA0219102325000080000000
B0946484404346N00632390EA0220302354000084000000
B0946524404346N00632476EA0223102373000080000000
B0946564404289N00632522EA0223302362000076000000
B0947004404234N00632478EA0224202385000076000000
B0947044404229N00632390EA0224902380000076000000
B0947084404279N00632318EA0225102387000076000000
B0947124404353N00632321EA0226002406000076000000
B0947164404387N00632396EA0228202423000084000000
B0947204404363N00632485EA0228502417000080000000
B0947244404296N00632529EA0228102426000084000000
B0947284404237N00632503EA0230002447000084000000
B0947324404223N00632417EA0230602437000080000000
B0947364404266N00632338EA0230402451000080000000
B0947404404331N00632317EA0231502454000076000000
B0947444404392N00632373EA0231802464000080000000
B0947484404392N00632469EA0233302480000084000000
B0947524404345N00632539EA0233502473000080000000
B0947564404275N00632548EA0233902487000080000000
B0948004404224N00632494EA0235302497000080000000
B0948044404223N00632400EA0235902502000080000000
B0948084404280N00632339EA0236502511000080000000
B0948124404349N00632368EA0236802509000084000000
B0948164404379N00632461EA0237602526000088000000
B0948204404358N00632554EA0238302524000084000000
B0948244404303N00632619EA0238302527000084000000
B0948284404240N00632634EA0239202542000092000000
B0948324404184N00632581EA0239802544000088000000
B0948364404186N00632481EA0240502558000088000000
B0948404404246N00632431EA0242202575000088000000
B0948444404306N00632481EA0242902571000084000000
B0948484404315N00632585EA0242702576000084000000
B0948524404279N00632669EA0243602585000084000000
B0948564404214N00632701EA0244202590000080000000
B0949004404150N00632652EA0244902607000084000000
B0949044404140N00632561EA0247002624000096000000
B0949084404189N00632489EA0247802630000092000000
B0949124404260N00632495EA0248802639000088000000
B0949164404305N00632573EA0249602644000088000000
B0949204404293N00632672EA0250002651000088000000
B0949244404242N00632734EA0251302670000088000000
B0949284404173N00632720EA0252502678000088000000
B0949324404142N00632637EA0254302696000092000000
B0949364404185N00632559EA0255002703000092000000
B0949404404254N00632568EA0256002713000084000000
B0949444404293N00632649EA0256302717000084000000
B0949484404277N00632737EA0257202730000088000000
B0949524404211N00632768EA0258002735000092000000
B0949564404147N00632721EA0259202751000096000000
B0950004404129N00632632EA0261102768000092000000
B0950044404172N00632558EA0261502767000088000000
B0950084404245N00632556EA0261902775000088000000
B0950124404299N00632619EA0262502780000088000000
B0950164404319N00632710EA0263302794000088000000
B0950204404311N00632799EA0264502798000088000000
B0950244404257N00632858EA0265302806000080000000
B0950284404188N00632837EA0265302811000080000000
B0950324404154N00632750EA0265702811000080000000
B0950364404176N00632658EA0266802834000080000000
B0950404404237N00632623EA0268402849000080000000
B0950444404297N00632655EA0268902843000084000000
B0950484404329N00632738EA0268902844000088000000
B0950524404325N00632833EA0269902867000084000000
B0950564404288N00632907EA0270402856000084000000
B0951004404216N00632932EA0270102864000088000000
B0951044404145N00632919EA0270902868000084000000
B0951084404085N00632864EA0271202871000088000000
B0951124404055N00632780EA0272102879000088000000
B0951164404071N00632693EA0272202880000084000000
B0951204404128N00632647EA0272202877000076000000
B0951244404195N00632672EA0272302884000080000000
B0951284404242N00632746EA0272802890000088000000
B0951324404263N00632836EA0273902905000088000000
B0951364404237N00632920EA0274802906000088000000
B0951404404167N00632950EA0274202897000088000000
B0951444404101N00632899EA0274502909000084000000
B0951484404082N00632803EA0274702905000084000000
B0951524404112N00632714EA0275302917000080000000
B0951564404168N00632669EA0276602929000080000000
B0952004404232N00632642EA0276602916000080000000
B0952044404309N00632626EA0275402906000088000000
B0952084404394N00632628EA0274502904000100000000
B0952124404480N00632638EA0273902890000112000000
B0952164404576N00632658EA0271302847000128000000
B0952204404684N00632680EA0268502828000148000000
B0952244404796N00632691EA0267002817000168000000
B0952284404910N00632699EA0266202813000196000000
B0952324405024N00632706EA0265402796000208000000
B0952364405143N00632708EA0263202773000224000000
B0952404405267N00632708EA0262002768000240000000
B0952444405386N00632704EA0262002769000240000000
B0952484405505N00632694EA0261202752000236000000
B0952524405625N00632682EA0260002747000248000000
B0952564405748N00632672EA0258902733000256000000
B0953004405869N00632656EA0258202733000260000000
B0953044405983N00632630EA0258602741000248000000
B0953084406092N00632598EA0259202743000240000000
B0953124406200N00632565EA0258602733000228000000
B0953164406311N00632529EA0257702716000236000000
B0953204406421N00632490EA0256502710000244000000
B0953244406532N00632448EA0255602692000252000000
B0953284406646N00632408EA0253902679000260000000
B0953324406762N00632374EA0253002671000264000000
B0953364406880N00632347EA0251602652000268000000
B0953404407001N00632321EA0249802636000276000000
B0953444407122N00632296EA0249002633000288000000
B0953484407243N00632278EA0248402624000280000000
B0953524407361N00632268EA0247902623000276000000
B0953564407477N00632264EA0247802623000264000000
B0954004407591N00632275EA0247302611000268000000
B0954044407708N00632295EA0245902596000264000000
B0954084407825N00632326EA0245002593000256000000
B0954124407938N00632374EA0244702582000252000000
B0954164408053N00632431EA0243002566000260000000
B0954204408167N00632496EA0242202558000268000000
B0954244408280N00632565EA0241402549000268000000
B0954284408394N00632634EA0240402541000272000000
B0954324408509N00632698EA0240102538000272000000
B0954364408623N00632754EA0239602531000264000000
B0954404408738N00632818EA0238102509000268000000
B0954444408855N00632880EA0236802501000272000000
B0954484408970N00632935EA0236902513000268000000
B0954524409082N00632971EA0237902521000248000000
B0954564409191N00632996EA0237902518000236000000
B0955004409299N00633013EA0238002520000228000000
B0955044409405N00633019EA0238402523000208000000
B0955084409509N00633014EA0238102520000200000000
B0955124409609N00632993EA0237902522000192000000
B0955164409698N00632959EA0239002535000176000000
B0955204409784N00632924EA0239502535000172000000
B0955244409869N00632886EA0239002524000168000000
B0955284409953N00632847EA0238302523000160000000
B0955324410034N00632805EA0238302523000156000000
B0955364410113N00632755EA0237602510000164000000
B0955404410188N00632688EA0237002510000156000000
B0955444410251N00632610EA0237602520000148000000
B0955484410313N00632532EA0237802512000140000000
B0955524410390N00632467EA0237202507000132000000
B0955564410469N00632418EA0237002507000120000000
B0956004410554N00632392EA0236902503000116000000
B0956044410637N00632363EA0235802491000116000000
B0956084410714N00632318EA0235502495000112000000
B0956124410790N00632279EA0235202481000116000000
B0956164410870N00632239EA0234102473000112000000
B0956204410946N00632192EA0233102460000112000000
B0956244411024N00632156EA0232102455000132000000
B0956284411106N00632149EA0231802448000120000000
B0956324411186N00632173EA0231402449000116000000
B0956364411262N00632205EA0231602450000104000000
B0956404411336N00632249EA0231202440000096000000
B0956444411414N00632299EA0230302430000100000000
B0956484411491N00632356EA0229302418000104000000
B0956524411569N00632422EA0227902406000112000000
B0956564411644N00632496EA0227102396000128000000
B0957004411719N00632577EA0226402389000136000000
B0957044411790N00632659EA0225602387000124000000
B0957084411859N00632734EA0225802391000120000000
B0957124411903N00632833EA0226002391000112000000
B0957164411907N00632953EA0225902391000112000000
B0957204411875N00633063EA0226202399000108000000
B0957244411826N00633153EA0226902397000104000000
B0957284411771N00633243EA0225402378000108000000
B0957324411734N00633357EA0224402371000112000000
B0957364411735N00633481EA0224102371000116000000
B0957404411747N00633601EA0223802375000116000000
B0957444411777N00633707EA0224402385000116000000
B0957484411802N00633796EA0226202404000104000000
B0957524411812N00633895EA0226602391000100000000
B0957564411813N00633999EA0225902393000096000000
B0958004411852N00634092EA0226102392000096000000
B0958044411919N00634150EA0225302379000100000000
B0958084411998N00634175EA0224602376000100000000
B0958124412072N00634227EA0224302377000104000000
B0958164412129N00634294EA0225302387000096000000
B0958204412193N00634349EA0225002376000092000000
B0958244412252N00634430EA0223902359000092000000
B0958284412300N00634530EA0222302342000100000000
B0958324412341N00634644EA0220702320000112000000
B0958364412393N00634752EA0218902315000152000000
B0958404412453N00634847EA0218602312000152000000
B0958444412534N00634896EA0218902318000144000000
B0958484412617N00634881EA0218702315000136000000
B0958524412686N00634818EA0218902314000132000000
B0958564412756N00634758EA0218602316000120000000
B0959004412826N00634705EA0218902316000112000000
B0959044412865N00634612EA0218702314000108000000
B0959084412853N00634508EA0218102304000104000000
B0959124412801N00634430EA0216902288000120000000
B0959164412723N00634393EA0215702276000120000000
B0959204412642N00634397EA0215002276000120000000
B0959244412564N00634422EA0214702268000124000000
B0959284412486N00634457EA0213402256000132000000
B0959324412413N00634510EA0213102260000132000000
B0959364412348N00634571EA0213602262000124000000
B0959404412284N00634636EA0213402257000116000000
B0959444412227N00634713EA0212402243000116000000
B0959484412172N00634800EA0210802225000144000000
B0959524412123N00634892EA0209802219000152000000
B0959564412081N00634991EA0209102212000148000000
B1000004412049N00635099EA0208502205000148000000
B1000044412020N00635208EA0208002200000136000000
B1000084411977N00635307EA0207702198000132000000
B1000124411929N00635398EA0208302221000120000000
B1000164411888N00635477EA0209802219000112000000
B1000204411824N00635523EA0209202207000100000000
B1000244411750N00635562EA0207402184000104000000
B1000284411672N00635615EA0205802177000108000000
B1000324411596N00635671EA0205302174000120000000
B1000364411524N00635726EA0205602179000116000000
B1000404411453N00635776EA0205902182000116000000
B1000444411383N00635828EA0205502172000116000000
B1000484411309N00635874EA0204902169000120000000
B1000524411239N00635931EA0204702166000120000000
B1000564411175N00636008EA0204302165000116000000
B1001004411126N00636103EA0204202166000116000000
B1001044411102N00636209EA0204802171000112000000
B1001084411105N00636322EA0205502177000108000000
B1001124411122N00636435EA0205002169000104000000
B1001164411160N00636542EA0204302156000104000000
B1001204411219N00636641EA0203202155000108000000
B1001244411293N00636718EA0203402161000108000000
B1001284411368N00636771EA0204302161000108000000
B1001324411440N00636835EA0203502146000108000000
B1001364411527N00636879EA0202602151000108000000
B1001404411613N00636906EA0203102153000100000000
B1001444411674N00636991EA0203302150000100000000
B1001484411678N00637109EA0202502136000092000000
B1001524411629N00637191EA0201902138000100000000
B1001564411563N00637208EA0201602135000116000000
B1002004411504N00637162EA0201102128000112000000
B1002044411466N00637082EA0200302116000112000000
B1002084411443N00636984EA0199502113000116000000
B1002124411420N00636883EA0199202112000120000000
B1002164411392N00636788EA0199602111000116000000
B1002204411353N00636695EA0198802101000120000000
B1002244411309N00636604EA0198402104000124000000
B1002284411266N00636519EA0198702106000120000000
B1002324411214N00636442EA0198602105000120000000
B1002364411157N00636376EA0199302122000120000000
B1002404411119N00636295EA0200902135000112000000
B1002444411118N00636201EA0201702140000104000000
B1002484411154N00636117EA0201502131000100000000
B1002524411213N00636038EA0200602127000100000000
B1002564411275N00635965EA0200502127000096000000
B1003004411338N00635889EA0200602129000104000000
B1003044411409N00635830EA0200602120000104000000
B1003084411490N00635772EA0199902118000108000000
B1003124411568N00635717EA0200202128000108000000
B1003164411637N00635649EA0200802131000112000000
B1003204411696N00635575EA0201502136000108000000
B1003244411751N00635489EA0200802124000112000000
B1003284411798N00635399EA0200902145000112000000
B1003324411819N00635306EA0202202137000104000000
B1003364411789N00635210EA0201102125000100000000
B1003404411722N00635148EA0199702109000104000000
B1003444411642N00635145EA0199002112000108000000
B1003484411570N00635177EA0199602116000108000000
B1003524411499N00635207EA0199102100000108000000
B1003564411414N00635217EA0197302084000116000000
B1004004411332N00635195EA0196602084000120000000
B1004044411252N00635160EA0195802071000132000000
B1004084411169N00635113EA0195202066000140000000
B1004124411093N00635067EA0195302066000148000000
B1004164411013N00635026EA0194702057000152000000
B1004204410937N00634978EA0194502065000148000000
B1004244410874N00634918EA0195402071000140000000
B1004284410815N00634862EA0196102083000124000000
B1004324410805N00634766EA0196502084000112000000
B1004364410844N00634686EA0197502100000108000000
B1004404410919N00634669EA0198102093000108000000
B1004444410987N00634747EA0197102084000116000000
B1004484410996N00634855EA0197502099000112000000
B1004524410963N00634935EA0198102094000104000000
B1004564410900N00634952EA0197202085000100000000
B1005004410844N00634914EA0197002081000096000000
B1005044410799N00634844EA0196302073000096000000
B1005084410740N00634788EA0194802052000104000000
B1005124410662N00634756EA0193102036000116000000
B1005164410580N00634743EA0192402042000132000000
B1005204410498N00634740EA0192002024000144000000
B1005244410409N00634753EA0190702018000156000000
B1005284410321N00634777EA0190402021000168000000
B1005324410240N00634805EA0191202032000164000000
B1005364410164N00634831EA0192202039000160000000
B1005404410090N00634818EA0193402061000148000000
B1005444410036N00634756EA0194802065000140000000
B1005484410016N00634658EA0195402074000124000000
B1005524409996N00634560EA0195702075000116000000
B1005564409945N00634495EA0196402091000112000000
B1006004409874N00634495EA0197102086000104000000
B1006044409823N00634575EA0196402079000108000000
B1006084409824N00634684EA0195802077000108000000
B1006124409876N00634769EA0195802076000104000000
B1006164409952N00634814EA0195802073000100000000
B1006204410035N00634830EA0195202061000108000000
B1006244410123N00634831EA0194002053000108000000
B1006284410211N00634830EA0193602048000120000000
B1006324410290N00634875EA0193302049000140000000
B1006364410328N00634974EA0193902063000124000000
B1006404410334N00635077EA0194302052000120000000
B1006444410300N00635161EA0194002055000108000000
B1006484410243N00635208EA0193202036000100000000
B1006524410175N00635207EA0191402013000120000000
B1006564410108N00635171EA0189402000000136000000
B1007004410056N00635103EA0189302008000132000000
B1007044410019N00635020EA0189902014000116000000
B1007084409999N00634934EA0191002034000112000000
B1007124409970N00634859EA0191702034000108000000
B1007164409915N00634826EA0192102045000104000000
B1007204409854N00634846EA0192402036000100000000
B1007244409811N00634924EA0192102039000100000000
B1007284409814N00635018EA0192902050000092000000
B1007324409858N00635095EA0193102043000088000000
B1007364409934N00635119EA0192302035000084000000
B1007404409997N00635047EA0191702031000084000000
B1007444410017N00634948EA0191702029000092000000
B1007484410009N00634856EA0191602033000112000000
B1007524409995N00634769EA0191802032000120000000
B1007564409979N00634673EA0191102024000116000000
B1008004409960N00634573EA0190902024000112000000
B1008044409935N00634478EA0190702016000108000000
B1008084409897N00634379EA0189201995000116000000
B1008124409858N00634275EA0188402000000116000000
B1008164409819N00634173EA0188702004000116000000
B1008204409782N00634077EA0189602016000112000000
B1008244409736N00633988EA0190102014000108000000
B1008284409674N00633917EA0190602025000112000000
B1008324409606N00633884EA0191702037000108000000
B1008364409544N00633930EA0191902030000108000000
B1008404409527N00634032EA0191502028000112000000
B1008444409563N00634129EA0191502036000108000000
B1008484409623N00634201EA0192002030000104000000
B1008524409693N00634257EA0191602034000096000000
B1008564409762N00634309EA0192102041000092000000
B1009004409824N00634365EA0193002051000092000000
B1009044409874N00634435EA0193602050000092000000
B1009084409913N00634519EA0193602050000088000000
B1009124409943N00634612EA0193202048000092000000
B1009164409971N00634705EA0193602053000088000000
B1009204409970N00634804EA0193602051000088000000
B1009244409910N00634852EA0194302066000088000000
B1009284409856N00634803EA0194902060000088000000
B1009324409848N00634700EA0194202050000088000000
B1009364409866N00634591EA0193202044000100000000
B1009404409875N00634478EA0192502035000120000000
B1009444409865N00634355EA0191302019000120000000
B1009484409845N00634236EA0191002034000124000000
B1009524409822N00634127EA0192102036000120000000
B1009564409782N00634023EA0192102041000120000000
B1010004409746N00633924EA0193802061000116000000
B1010044409689N00633865EA0194802063000108000000
B1010084409620N00633829EA0193802042000116000000
B1010124409544N00633786EA0193102051000124000000
B1010164409483N00633715EA0194502068000120000000
B1010204409436N00633631EA0195402075000116000000
B1010244409369N00633599EA0195902078000112000000
B1010284409310N00633650EA0195902080000108000000
B1010324409297N00633751EA0196402086000104000000
B1010364409340N00633842EA0197002093000100000000
B1010404409411N00633890EA0198302107000100000000
B1010444409486N00633916EA0199302116000096000000
B1010484409527N00633999EA0199402108000092000000
B1010524409486N00634080EA0198602105000096000000
B1010564409421N00634058EA0199102109000092000000
B1011004409388N00633969EA0198502094000096000000
B1011044409377N00633855EA0197502090000100000000
B1011084409368N00633741EA0197702106000100000000
B1011124409336N00633652EA0199402128000108000000
B1011164409267N00633643EA0200802128000104000000
B1011204409215N00633722EA0200402124000100000000
B1011244409215N00633834EA0200202119000104000000
B1011284409264N00633928EA0199602109000100000000
B1011324409342N00633965EA0199002106000108000000
B1011364409427N00633981EA0199002113000112000000
B1011404409497N00634007EA0200802135000108000000
B1011444409519N00634095EA0200602118000100000000
B1011484409462N00634155EA0199302110000100000000
B1011524409394N00634119EA0199502120000100000000
B1011564409373N00634017EA0200002118000104000000
B1012004409437N00633939EA0201002145000100000000
B1012044409515N00633945EA0202102141000096000000
B1012084409542N00634038EA0202002145000092000000
B1012124409499N00634106EA0202202141000088000000
B1012164409432N00634089EA0201902143000092000000
B1012204409385N00634020EA0203002158000096000000
B1012244409393N00633933EA0204602175000096000000
B1012284409457N00633891EA0205602178000088000000
B1012324409523N00633936EA0205902185000088000000
B1012364409533N00634021EA0206402188000088000000
B1012404409485N00634073EA0206602191000088000000
B1012444409431N00634029EA0206702190000092000000
B1012484409427N00633939EA0207202202000088000000
B1012524409471N00633873EA0208302214000084000000
B1012564409538N00633871EA0209402222000076000000
B1013004409584N00633933EA0209502217000072000000
B1013044409562N00634015EA0209002214000072000000
B1013084409499N00634020EA0209402223000076000000
B1013124409458N00633952EA0209802229000080000000
B1013164409480N00633868EA0211502250000088000000
B1013204409549N00633839EA0212202249000088000000
B1013244409609N00633893EA0212802259000084000000
B1013284409607N00633980EA0213202261000080000000
B1013324409551N00634016EA0213402261000080000000
B1013364409494N00633978EA0213502269000084000000
B1013404409467N00633906EA0215002285000088000000
B1013444409485N00633822EA0215502283000088000000
B1013484409548N00633777EA0216302301000088000000
B1013524409614N00633794EA0217702311000080000000
B1013564409649N00633865EA0218202307000076000000
B1014004409618N00633945EA0217802306000084000000
B1014044409549N00633949EA0218102313000084000000
B1014084409501N00633893EA0219302334000084000000
B1014124409496N00633808EA0220302333000080000000
B1014164409545N00633743EA0220302338000080000000
B1014204409615N00633739EA0221202346000080000000
B1014244409667N00633800EA0222002353000080000000
B1014284409657N00633890EA0222402356000080000000
B1014324409593N00633923EA0222302355000080000000
B1014364409535N00633880EA0223402375000076000000
B1014404409514N00633796EA0224002372000084000000
B1014444409546N00633715EA0224702382000084000000
B1014484409607N00633679EA0225602398000088000000
B1014524409668N00633705EA0226502403000080000000
B1014564409696N00633791EA0226902402000080000000
B1015004409659N00633869EA0227102415000080000000
B1015044409594N00633859EA0228502422000088000000
B1015084409561N00633774EA0228602427000084000000
B1015124409579N00633686EA0229702442000084000000
B1015164409636N00633651EA0231302456000084000000
B1015204409693N00633705EA0232202464000084000000
B1015244409684N00633804EA0232802470000080000000
B1015284409613N00633832EA0233102470000084000000
B1015324409558N00633765EA0233102465000088000000
B1015364409559N00633665EA0234302492000092000000
B1015404409603N00633605EA0236402514000092000000
B1015444409666N00633601EA0237402515000088000000
B1015484409719N00633660EA0237202505000084000000
B1015524409731N00633763EA0236402502000084000000
B1015564409685N00633850EA0237202525000088000000
B1016004409618N00633855EA0239402540000088000000
B1016044409570N00633789EA0239402528000088000000
B1016084409575N00633695EA0240102561000088000000
B1016124409615N00633640EA0242602573000096000000
B1016164409680N00633642EA0242302560000092000000
B1016204409730N00633717EA0241502560000088000000
B1016244409728N00633820EA0241902566000084000000
B1016284409678N00633894EA0243002586000088000000
B1016324409614N00633894EA0244702593000088000000
B1016364409571N00633824EA0244202581000088000000
B1016404409588N00633733EA0244402605000088000000
B1016444409640N00633691EA0246502617000088000000
B1016484409701N00633716EA0246702604000080000000
B1016524409743N00633799EA0245602597000076000000
B1016564409746N00633903EA0245702608000084000000
B1017004409718N00633988EA0247002622000080000000
B1017044409655N00634019EA0247302618000084000000
B1017084409600N00633964EA0247502626000084000000
B1017124409589N00633881EA0248402634000080000000
B1017164409626N00633812EA0249702652000080000000
B1017204409680N00633793EA0250502649000076000000
B1017244409740N00633841EA0249302638000072000000
B1017284409771N00633934EA0248902629000076000000
B1017324409771N00634042EA0249202651000088000000
B1017364409736N00634125EA0250802656000076000000
B1017404409675N00634150EA0251102657000080000000
B1017444409627N00634093EA0251102652000076000000
B1017484409636N00634001EA0250702655000080000000
B1017524409685N00633938EA0251402669000080000000
B1017564409748N00633929EA0252402673000076000000
B1018004409809N00633982EA0252102663000080000000
B1018044409874N00634049EA0251802671000080000000
B1018084409947N00634080EA0253702695000080000000
B1018124410021N00634064EA0254602697000080000000
B1018164410065N00633997EA0255402711000076000000
B1018204410060N00633911EA0255902703000072000000
B1018244410006N00633854EA0255602712000076000000
B1018284409943N00633864EA0257002734000076000000
B1018324409906N00633941EA0258902748000076000000
B1018364409925N00634029EA0260502765000076000000
B1018404409979N00634080EA0261502764000076000000
B1018444410053N00634080EA0260902761000076000000
B1018484410110N00634030EA0261802774000076000000
B1018524410135N00633951EA0261702767000072000000
B1018564410123N00633864EA0262102784000076000000
B1019004410081N00633804EA0263302790000076000000
B1019044410021N00633786EA0264002796000076000000
B1019084409961N00633811EA0264502801000076000000
B1019124409909N00633869EA0265002806000080000000
B1019164409878N00633952EA0266102823000080000000
B1019204409884N00634045EA0267102826000072000000
B1019244409934N00634112EA0267502834000072000000
B1019284410003N00634121EA0268402842000072000000
B1019324410060N00634069EA0268702840000072000000
B1019364410075N00633976EA0268302840000076000000
B1019404410052N00633894EA0269502859000072000000
B1019444409993N00633859EA0270602871000072000000
B1019484409930N00633881EA0271902881000068000000
B1019524409886N00633954EA0272602888000072000000
B1019564409880N00634046EA0273002887000080000000
B1020004409909N00634131EA0273002888000080000000
B1020044409962N00634188EA0273702899000088000000
B1020084410029N00634198EA0274202900000080000000
B1020124410084N00634151EA0273902896000080000000
B1020164410097N00634063EA0273202890000076000000
B1020204410066N00633985EA0273402900000080000000
B1020244410014N00633941EA0274702911000088000000
B1020284409952N00633934EA0275302917000080000000
B1020324409895N00633982EA0276002924000080000000
B1020364409874N00634069EA0276202919000072000000
B1020404409899N00634160EA0275702912000072000000
B1020444409952N00634238EA0274502895000080000000
B1020484410005N00634327EA0273602896000088000000
B1020524410036N00634437EA0272902879000092000000
B1020564410071N00634561EA0270902854000108000000
B1021004410117N00634691EA0268802834000124000000
B1021044410172N00634817EA0267502815000132000000
B1021084410237N00634943EA0265102784000164000000
B1021124410308N00635072EA0262602762000196000000
B1021164410385N00635194EA0261002754000208000000
B1021204410463N00635308EA0260502757000212000000
B1021244410538N00635414EA0260902764000204000000
B1021284410614N00635511EA0261302763000192000000
B1021324410694N00635597EA0260702753000192000000
B1021364410779N00635676EA0259802744000192000000
B1021404410868N00635750EA0259002736000184000000
B1021444410959N00635818EA0258502737000184000000
B1021484411050N00635875EA0258302729000176000000
B1021524411144N00635925EA0257102713000184000000
B1021564411243N00635965EA0255602701000184000000
B1022004411343N00635997EA0254902691000184000000
B1022044411446N00636022EA0253602676000192000000
B1022084411550N00636045EA0252402668000208000000
B1022124411652N00636062EA0252002670000196000000
B1022164411754N00636074EA0252202670000188000000
B1022204411854N00636079EA0251902660000176000000
B1022244411955N00636077EA0251102658000172000000
B1022284412054N00636071EA0250902655000168000000
B1022324412153N00636062EA0250502648000164000000
B1022364412250N00636052EA0250002641000160000000
B1022404412349N00636036EA0249002633000164000000
B1022444412449N00636021EA0248202622000176000000
B1022484412549N00635995EA0247502619000176000000
B1022524412645N00635964EA0248002642000164000000
B1022564412731N00635934EA0250302665000156000000
B1023004412816N00635922EA0251202653000152000000
B1023044412904N00635914EA0250302644000140000000
B1023084412995N00635906EA0249202630000136000000
B1023124413090N00635889EA0248202632000140000000
B1023164413175N00635886EA0250302663000132000000
B1023204413255N00635879EA0251502660000120000000
B1023244413331N00635863EA0251702671000108000000
B1023284413401N00635840EA0252302674000108000000
B1023324413459N00635814EA0253802697000100000000
B1023364413514N00635793EA0255202702000096000000
B1023404413580N00635796EA0255402706000092000000
B1023444413640N00635856EA0255802709000092000000
B1023484413652N00635957EA0256102718000088000000
B1023524413605N00636027EA0257102724000092000000
B1023564413540N00636013EA0257402728000096000000
B1024004413502N00635935EA0257802733000096000000
B1024044413503N00635840EA0258802750000092000000
B1024084413537N00635762EA0260502770000088000000
B1024124413594N00635724EA0261902771000088000000
B1024164413657N00635761EA0261602765000084000000
B1024204413689N00635850EA0261102760000088000000
B1024244413684N00635953EA0261602777000088000000
B1024284413667N00636047EA0262602777000092000000
B1024324413614N00636113EA0262002769000092000000
B1024364413544N00636109EA0262102779000088000000
B1024404413492N00636053EA0262702779000088000000
B1024444413479N00635958EA0262902783000088000000
B1024484413513N00635871EA0263602801000092000000
B1024524413572N00635822EA0265302817000088000000
B1024564413645N00635839EA0266402819000084000000
B1025004413685N00635926EA0266702824000092000000
B1025044413675N00636023EA0267402831000092000000
B1025084413622N00636091EA0267302828000092000000
B1025124413550N00636103EA0267202828000100000000
B1025164413481N00636073EA0267902842000104000000
B1025204413445N00635996EA0268802852000100000000
B1025244413457N00635913EA0269702859000088000000
B1025284413500N00635843EA0269602848000088000000
B1025324413561N00635785EA0269202847000092000000
B1025364413631N00635739EA0268602838000108000000
B1025404413710N00635706EA0267702821000108000000
B1025444413800N00635681EA0265902804000120000000
B1025484413897N00635672EA0264602796000132000000
B1025524413995N00635668EA0264302797000140000000
B1025564414090N00635672EA0264002791000140000000
B1026004414189N00635693EA0263302780000144000000
B1026044414290N00635714EA0262602774000144000000
B1026084414393N00635735EA0262302773000144000000
B1026124414497N00635754EA0261502759000148000000
B1026164414605N00635774EA0260502755000152000000
B1026204414711N00635788EA0260902757000152000000
B1026244414815N00635809EA0260802759000152000000
B1026284414918N00635835EA0260402749000152000000
B1026324415022N00635856EA0259402743000152000000
B1026364415130N00635875EA0258802738000156000000
B1026404415234N00635908EA0259002747000152000000
B1026444415336N00635939EA0259302740000152000000
B1026484415437N00635977EA0259002743000148000000
B1026524415534N00636012EA0259402744000144000000
B1026564415626N00636061EA0259402752000148000000
B1027004415710N00636109EA0260702763000132000000
B1027044415793N00636152EA0260802753000124000000
B1027084415882N00636181EA0258802728000132000000
B1027124415976N00636196EA0258402738000136000000
B1027164416062N00636203EA0259102747000132000000
B1027204416146N00636221EA0259602753000132000000
B1027244416227N00636239EA0260702769000120000000
B1027284416306N00636257EA0261302761000104000000
B1027324416387N00636282EA0261002759000100000000
B1027364416465N00636309EA0261102770000096000000
B1027404416539N00636330EA0262102783000096000000
B1027444416608N00636344EA0263402791000088000000
B1027484416679N00636364EA0262702768000088000000
B1027524416765N00636376EA0260602747000092000000
B1027564416859N00636369EA0259302740000104000000
B1028004416948N00636346EA0259202741000108000000
B1028044417036N00636309EA0258502725000108000000
B1028084417119N00636248EA0256802709000120000000
B1028124417198N00636169EA0255502695000140000000
B1028164417276N00636077EA0254002678000144000000
B1028204417351N00635973EA0252802673000156000000
B1028244417415N00635873EA0253402693000156000000
B1028284417467N00635780EA0254902701000148000000
B1028324417526N00635698EA0255302702000128000000
B1028364417595N00635631EA0255702716000124000000
B1028404417662N00635577EA0257602734000108000000
B1028444417727N00635522EA0258302734000100000000
B1028484417795N00635470EA0258302728000100000000
B1028524417873N00635434EA0257602721000096000000
B1028564417956N00635402EA0256502701000100000000
B1029004418044N00635367EA0254702683000112000000
B1029044418137N00635319EA0253102668000124000000
B1029084418226N00635258EA0251602663000132000000
B1029124418311N00635187EA0251802670000148000000
B1029164418386N00635113EA0252802688000140000000
B1029204418454N00635043EA0255002709000128000000
B1029244418521N00634983EA0255702700000116000000
B1029284418586N00634905EA0254802692000112000000
B1029324418640N00634809EA0255002706000112000000
B1029364418683N00634714EA0256502719000112000000
B1029404418723N00634615EA0256602719000112000000
B1029444418752N00634515EA0257302723000108000000
B1029484418784N00634417EA0256802706000108000000
B1029524418826N00634313EA0255602704000120000000
B1029564418866N00634211EA0256402721000120000000
B1030004418906N00634118EA0257602732000116000000
B1030044418960N00634036EA0258002723000112000000
B1030084419041N00633988EA0256902718000116000000
B1030124419136N00633982EA0256602716000120000000
B1030164419222N00634021EA0257902745000120000000
B1030204419283N00634084EA0260102757000112000000
B1030244419313N00634176EA0260802759000100000000
B1030284419300N00634275EA0260002743000104000000
B1030324419252N00634350EA0259002739000100000000
B1030364419186N00634393EA0258802734000104000000
B1030404419112N00634413EA0257802719000104000000
B1030444419036N00634450EA0256402705000112000000
B1030484418982N00634528EA0256202717000124000000
B1030524418950N00634622EA0257802739000128000000
B1030564418936N00634716EA0259202743000148000000
B1031004418953N00634814EA0259102737000140000000
B1031044419001N00634900EA0259002746000124000000
B1031084419069N00634942EA0260602764000128000000
B1031124419139N00634920EA0261302767000116000000
B1031164419181N00634835EA0261802774000104000000
B1031204419174N00634735EA0262502777000100000000
B1031244419123N00634665EA0262602774000108000000
B1031284419056N00634665EA0262302777000108000000
B1031324419005N00634721EA0263002777000132000000
B1031364418948N00634764EA0262602780000124000000
B1031404418884N00634782EA0263202792000116000000
B1031444418824N00634790EA0264502808000116000000
B1031484418771N00634839EA0265802814000116000000
B1031524418778N00634939EA0266702832000104000000
B1031564418836N00634994EA0268102840000100000000
B1032004418908N00634960EA0268302843000096000000
B1032044418936N00634878EA0269902869000116000000
B1032084418910N00634801EA0271302873000100000000
B1032124418848N00634788EA0272002884000092000000
B1032164418798N00634847EA0273302905000092000000
B1032204418800N00634939EA0275302915000108000000
B1032244418854N00635002EA0275802919000096000000
B1032284418927N00634990EA0276602927000100000000
B1032324418966N00634909EA0277402938000108000000
B1032364418943N00634820EA0278102948000096000000
B1032404418882N00634795EA0279502970000092000000
B1032444418828N00634847EA0281502988000084000000
B1032484418822N00634939EA0283102998000096000000
B1032524418866N00635015EA0284003005000092000000
B1032564418940N00635024EA0284403008000084000000
B1033004418995N00634952EA0284903020000084000000
B1033044418997N00634860EA0286403038000080000000
B1033084418947N00634807EA0287903051000076000000
B1033124418884N00634829EA0289503069000076000000
B1033164418854N00634913EA0290803088000072000000
B1033204418874N00635005EA0292603098000080000000
B1033244418935N00635055EA0293403106000076000000
B1033284419004N00635037EA0294403116000072000000
B1033324419045N00634961EA0295003125000072000000
B1033364419034N00634869EA0296403140000072000000
B1033404418978N00634834EA0298003159000076000000
B1033444418922N00634883EA0299103169000076000000
B1033484418914N00634979EA0301103194000076000000
B1033524418963N00635052EA0302103196000072000000
B1033564419038N00635043EA0302603211000072000000
B1034004419084N00634972EA0304103222000072000000
B1034044419078N00634878EA0305703247000080000000
B1034084419028N00634830EA0307503249000084000000
B1034124418962N00634860EA0307703262000088000000
B1034164418939N00634955EA0309603284000092000000
B1034204418973N00635042EA0311303295000096000000
B1034244419044N00635070EA0311903303000092000000
B1034284419109N00635030EA0313403318000080000000
B1034324419142N00634946EA0314703329000084000000
B1034364419121N00634856EA0315603335000084000000
B1034404419058N00634825EA0316603351000088000000
B1034444419002N00634878EA0317503360000084000000
B1034484418992N00634979EA0318703382000096000000
B1034524419039N00635059EA0320803398000104000000
B1034564419112N00635076EA0322203409000108000000
B1035004419173N00635021EA0323103423000112000000
B1035044419183N00634926EA0324503426000108000000
B1035084419134N00634852EA0324403431000112000000
B1035124419067N00634861EA0326303460000120000000
B1035164419023N00634929EA0328103471000104000000
B1035204419022N00635033EA0329203483000096000000
B1035244419069N00635117EA0330603495000092000000
B1035284419142N00635145EA0331903511000100000000
B1035324419208N00635104EA0332703517000104000000
B1035364419239N00635017EA0333003516000096000000
B1035404419225N00634920EA0333503532000088000000
B1035444419171N00634864EA0335103549000088000000
B1035484419109N00634886EA0336703562000080000000
B1035524419077N00634973EA0337803575000076000000
B1035564419096N00635073EA0339703595000092000000
B1036004419158N00635132EA0341303608000104000000
B1036044419230N00635112EA0342003608000124000000
B1036084419265N00635021EA0341503600000116000000
B1036124419239N00634925EA0341803615000104000000
B1036164419173N00634891EA0343003637000100000000
B1036204419116N00634937EA0345203654000096000000
B1036244419091N00635025EA0346803670000096000000
B1036284419109N00635124EA0348303681000092000000
B1036324419153N00635212EA0348903686000092000000
B1036364419217N00635278EA0349203682000088000000
B1036404419292N00635338EA0348203671000092000000
B1036444419378N00635384EA0347703662000096000000
B1036484419474N00635403EA0345603638000112000000
B1036524419578N00635408EA0344103613000136000000
B1036564419688N00635410EA0341903604000156000000
B1037004419794N00635414EA0341503607000160000000
B1037044419899N00635424EA0341403601000164000000
B1037084420005N00635440EA0340903589000172000000
B1037124420114N00635457EA0339103562000184000000
B1037164420227N00635480EA0337803564000196000000
B1037204420336N00635510EA0338303575000192000000
B1037244420436N00635561EA0338903575000184000000
B1037284420535N00635616EA0339103578000172000000
B1037324420630N00635679EA0339103582000164000000
B1037364420721N00635746EA0339503580000156000000
B1037404420812N00635811EA0339003572000152000000
B1037444420907N00635874EA0338103563000144000000
B1037484421003N00635932EA0337403556000148000000
B1037524421099N00635986EA0336603548000156000000
B1037564421201N00636023EA0335403529000164000000
B1038004421309N00636048EA0333403509000164000000
B1038044421418N00636066EA0332403504000172000000
B1038084421522N00636094EA0332703515000172000000
B1038124421622N00636138EA0333003512000164000000
B1038164421719N00636192EA0333003514000172000000
B1038204421816N00636259EA0332703502000172000000
B1038244421911N00636337EA0331403494000172000000
B1038284421995N00636420EA0332303519000176000000
B1038324422070N00636499EA0333503518000160000000
B1038364422148N00636577EA0332303500000148000000
B1038404422232N00636659EA0330803482000152000000
B1038444422315N00636745EA0329903478000152000000
B1038484422395N00636833EA0329303466000160000000
B1038524422483N00636920EA0327703446000164000000
B1038564422576N00637005EA0325603434000180000000
B1039004422667N00637080EA0326003451000176000000
B1039044422752N00637149EA0326803447000176000000
B1039084422841N00637215EA0325303429000172000000
B1039124422934N00637286EA0324003418000172000000
B1039164423027N00637356EA0323203416000168000000
B1039204423117N00637429EA0323403421000164000000
B1039244423201N00637501EA0323603424000156000000
B1039284423282N00637577EA0323503403000148000000
B1039324423374N00637661EA0320603366000160000000
B1039364423473N00637748EA0318403364000184000000
B1039404423567N00637828EA0319003374000184000000
B1039444423659N00637907EA0318403352000188000000
B1039484423757N00637993EA0316803354000192000000
B1039524423841N00638067EA0318503378000176000000
B1039564423916N00638141EA0319803382000156000000
B1040004423992N00638214EA0319403367000148000000
B1040044424075N00638288EA0317403338000148000000
B1040084424167N00638370EA0314803314000164000000
B1040124424264N00638452EA0313403313000176000000
B1040164424355N00638534EA0313503318000184000000
B1040204424436N00638621EA0314203323000176000000
B1040244424511N00638717EA0314103315000172000000
B1040284424585N00638817EA0313003301000168000000
B1040324424655N00638926EA0311903295000172000000
B1040364424717N00639047EA0311303287000172000000
B1040404424777N00639172EA0310503278000176000000
B1040444424841N00639295EA0309503265000176000000
B1040484424915N00639409EA0308503255000180000000
B1040524424997N00639510EA0307403247000180000000
B1040564425081N00639604EA0306903242000180000000
B1041004425163N00639697EA0306303236000180000000
B1041044425242N00639792EA0305803229000184000000
B1041084425320N00639890EA0304703216000188000000
B1041124425397N00639991EA0303703208000188000000
B1041164425482N00640075EA0304303234000184000000
B1041204425558N00640139EA0307103261000164000000
B1041244425630N00640198EA0309103270000136000000
B1041284425704N00640250EA0308803257000120000000
B1041324425778N00640304EA0307703252000120000000
B1041364425856N00640360EA0307803255000112000000
B1041404425934N00640415EA0307903255000108000000
B1041444426012N00640473EA0307803253000104000000
B1041484426086N00640537EA0307703253000104000000
B1041524426156N00640608EA0307403244000100000000
B1041564426224N00640693EA0306703238000108000000
B1042004426290N00640788EA0306503241000112000000
B1042044426347N00640889EA0308403275000112000000
B1042084426345N00641002EA0310903295000108000000
B1042124426288N00641079EA0311303289000100000000
B1042164426220N00641067EA0311803302000104000000
B1042204426189N00640997EA0313403313000096000000
B1042244426214N00640911EA0312703300000092000000
B1042284426284N00640854EA0313603323000096000000
B1042324426363N00640857EA0315903349000092000000
B1042364426425N00640933EA0316903351000088000000
B1042404426418N00641048EA0317603376000092000000
B1042444426353N00641095EA0320703400000088000000
B1042484426293N00641063EA0322303416000088000000
B1042524426273N00640987EA0323503414000092000000
B1042564426310N00640892EA0323003411000096000000
B1043004426375N00640833EA0323903436000100000000
B1043044426437N00640797EA0327103463000096000000
B1043084426509N00640827EA0327603459000096000000
B1043124426518N00640939EA0327703469000100000000
B1043164426457N00641013EA0329203483000100000000
B1043204426383N00641018EA0330503502000096000000
B1043244426320N00640966EA0331803510000096000000
B1043284426289N00640870EA0333503533000100000000
B1043324426308N00640775EA0335303545000100000000
B1043364426376N00640714EA0336703561000100000000
B1043404426457N00640715EA0338003583000104000000
B1043434426505N00640758EA0339903595000104000000
B1043484426532N00640883EA0340403599000100000000
B1043524426498N00640976EA0341903622000100000000
B1043564426437N00641035EA0343203627000100000000
B1044004426363N00641036EA0343603630000092000000
B1044044426305N00640975EA0344603659000096000000
B1044084426286N00640894EA0347603678000096000000
B1044124426311N00640811EA0348703689000096000000
B1044164426370N00640757EA0350003697000104000000
B1044204426445N00640754EA0351003718000100000000
B1044244426502N00640813EA0352903736000096000000
B1044284426519N00640910EA0354003734000100000000
B1044324426483N00641006EA0353903737000096000000
B1044364426406N00641049EA0353903730000100000000
B1044404426323N00641019EA0353903740000108000000
B1044444426267N00640941EA0355203761000108000000
B1044484426249N00640844EA0356903780000104000000
B1044524426268N00640754EA0359203808000112000000
B1044564426312N00640683EA0360603793000112000000
B1045004426390N00640634EA0358803781000116000000
B1045044426481N00640607EA0358903794000116000000
B1045084426575N00640588EA0359603794000132000000
B1045124426672N00640572EA0359203785000136000000
B1045164426774N00640558EA0358303776000140000000
B1045204426877N00640540EA0357603766000152000000
B1045244426981N00640525EA0356803755000160000000
B1045284427090N00640519EA0356003748000172000000
B1045324427198N00640528EA0355603747000176000000
B1045364427303N00640555EA0355303745000176000000
B1045404427403N00640598EA0355303746000176000000
B1045444427503N00640645EA0354903740000176000000
B1045484427602N00640690EA0354703731000172000000
B1045524427707N00640728EA0353403716000172000000
B1045564427814N00640750EA0352303715000180000000
B1046004427918N00640768EA0352003712000176000000
B1046044428019N00640788EA0352103708000180000000
B1046084428126N00640793EA0350403684000176000000
B1046124428236N00640783EA0348503668000188000000
B1046164428348N00640757EA0347803663000192000000
B1046204428457N00640727EA0347403662000196000000
B1046244428564N00640698EA0346903656000204000000
B1046284428671N00640667EA0346203652000200000000
B1046324428776N00640636EA0345603645000200000000
B1046364428884N00640605EA0344903635000200000000
B1046404428993N00640577EA0343803629000204000000
B1046444429102N00640560EA0343503624000200000000
B1046484429213N00640545EA0342903617000200000000
B1046524429322N00640536EA0342403611000204000000
B1046564429432N00640529EA0342103609000200000000
B1047004429539N00640527EA0341803610000200000000
B1047044429646N00640525EA0341603602000200000000
B1047084429752N00640519EA0340803594000196000000
B1047124429863N00640523EA0340203592000200000000
B1047164429969N00640532EA0341403618000192000000
B1047204430072N00640549EA0343203634000172000000
B1047244430168N00640579EA0345103656000152000000
B1047284430258N00640620EA0346703665000144000000
B1047324430345N00640664EA0346603651000136000000
B1047364430439N00640710EA0345503644000136000000
B1047404430526N00640755EA0345803654000128000000
B1047444430610N00640801EA0345703642000128000000
B1047484430699N00640859EA0343703619000132000000
B1047524430783N00640941EA0342703616000140000000
B1047564430861N00641036EA0342403613000140000000
B1048004430931N00641140EA0342103606000144000000
B1048044430998N00641253EA0341103596000156000000
B1048084431055N00641368EA0341303604000164000000
B1048124431109N00641487EA0340003570000172000000
B1048164431167N00641621EA0337003543000204000000
B1048204431229N00641762EA0334903523000220000000
B1048244431293N00641906EA0333603514000228000000
B1048284431347N00642051EA0333703520000232000000
B1048324431395N00642201EA0333603505000228000000
B1048364431451N00642354EA0331703486000232000000
B1048404431511N00642504EA0330603487000236000000
B1048444431575N00642648EA0330003472000248000000
B1048484431644N00642786EA0329603482000244000000
B1048524431707N00642911EA0331303514000224000000
B1048564431763N00643026EA0333203513000196000000
B1049004431824N00643145EA0331203477000196000000
B1049044431896N00643270EA0328503460000204000000
B1049084431969N00643380EA0329303483000200000000
B1049124432039N00643484EA0330303483000184000000
B1049164432109N00643596EA0328903453000184000000
B1049204432186N00643718EA0325803421000200000000
B1049244432272N00643843EA0322903394000220000000
B1049284432364N00643959EA0321403395000236000000
B1049324432454N00644064EA0322203416000232000000
B1049364432534N00644165EA0323403416000224000000
B1049404432617N00644268EA0322803413000216000000
B1049444432690N00644364EA0324503443000200000000
B1049484432758N00644443EA0326903461000216000000
B1049524432828N00644508EA0327303453000208000000
B1049564432909N00644546EA0326703455000176000000
B1050004432987N00644570EA0329003499000152000000
B1050044433058N00644557EA0332103517000124000000
B1050084433105N00644482EA0333903535000116000000
B1050124433101N00644393EA0334803535000104000000
B1050164433046N00644338EA0335003543000096000000
B1050204432981N00644358EA0336003556000096000000
B1050244432937N00644430EA0337003561000100000000
B1050284432937N00644527EA0338003579000092000000
B1050324432981N00644605EA0339403593000088000000
B1050364433054N00644628EA0341103610000112000000
B1050404433124N00644588EA0342303619000104000000
B1050444433161N00644503EA0343603634000104000000
B1050484433150N00644414EA0344003631000104000000
B1050524433098N00644350EA0344403640000100000000
B1050564433028N00644334EA0345103641000104000000
B1051004432955N00644377EA0345103648000108000000
B1051044432915N00644462EA0346603660000100000000
B1051084432916N00644562EA0347103665000096000000
B1051124432967N00644641EA0346903662000092000000
B1051164433042N00644666EA0348203698000092000000
B1051204433110N00644628EA0350503702000088000000
B1051244433143N00644536EA0351303711000096000000
B1051284433117N00644447EA0352603732000108000000
B1051324433052N00644419EA0353803734000104000000
B1051364432983N00644464EA0353703736000108000000
B1051404432948N00644557EA0355203754000100000000
B1051444432954N00644664EA0355703751000104000000
B1051484433011N00644742EA0356303767000108000000
B1051524433087N00644752EA0359203805000104000000
B1051564433140N00644688EA0360403802000100000000
B1052004433131N00644585EA0360303811000096000000
B1052044433074N00644529EA0361903838000100000000
B1052084433005N00644542EA0363703830000108000000
B1052124432946N00644633EA0362603819000108000000
B1052164432928N00644766EA0360803783000124000000
B1052204432953N00644921EA0358903799000156000000
B1052244432996N00645054EA0361503826000156000000
B1052284433050N00645177EA0362203809000160000000
B1052324433123N00645295EA0359503780000176000000
B1052364433209N00645404EA0358203778000192000000
B1052404433296N00645507EA0357703766000196000000
B1052444433383N00645613EA0356403756000208000000
B1052484433474N00645714EA0355503747000216000000
B1052524433565N00645807EA0355603764000224000000
B1052564433647N00645899EA0357403780000208000000
B1053004433728N00645992EA0357803769000200000000
B1053044433807N00646092EA0356503751000196000000
B1053084433884N00646197EA0355903765000204000000
B1053124433955N00646299EA0357603779000196000000
B1053164434021N00646404EA0359103805000188000000
B1053204434080N00646504EA0361403822000172000000
B1053244434138N00646604EA0361603809000156000000
B1053284434206N00646707EA0360103792000160000000
B1053324434283N00646809EA0359203781000160000000
B1053364434365N00646912EA0358503781000164000000
B1053404434449N00647010EA0358603785000160000000
B1053444434539N00647098EA0358703789000160000000
B1053484434630N00647181EA0359703805000160000000
B1053524434717N00647259EA0361803831000156000000
B1053564434799N00647331EA0363403837000156000000
B1054004434883N00647400EA0363503831000144000000
B1054044434973N00647467EA0361603803000148000000
B1054084435073N00647530EA0360003783000156000000
B1054124435177N00647592EA0358503780000172000000
B1054164435277N00647651EA0358803789000176000000
B1054204435373N00647713EA0359503802000180000000
B1054244435460N00647773EA0361303821000172000000
B1054284435540N00647831EA0363603856000156000000
B1054324435613N00647891EA0365903863000140000000
B1054364435687N00647948EA0366303864000132000000
B1054404435757N00648020EA0366203858000120000000
B1054444435821N00648103EA0365903861000116000000
B1054484435880N00648194EA0365703851000140000000
B1054524435938N00648295EA0364103833000132000000
B1054564435993N00648410EA0362403804000132000000
B1055004436049N00648540EA0360003784000148000000
B1055044436104N00648668EA0359303791000156000000
B1055084436159N00648796EA0359403782000172000000
B1055124436209N00648930EA0358603776000172000000
B1055164436257N00649060EA0358503779000172000000
B1055204436302N00649191EA0358203772000172000000
B1055244436334N00649321EA0358503778000164000000
B1055284436370N00649452EA0357103749000180000000
B1055324436416N00649590EA0354603726000204000000
B1055364436471N00649731EA0353403728000204000000
B1055404436528N00649866EA0352903716000196000000
B1055444436590N00650000EA0351703700000192000000
B1055484436655N00650144EA0350403684000204000000
B1055524436721N00650279EA0350603724000216000000
B1055564436783N00650387EA0354603769000192000000
B1056004436823N00650491EA0358003788000168000000
B1056044436859N00650596EA0358103765000140000000
B1056084436907N00650711EA0355703737000144000000
B1056124436970N00650826EA0354003722000152000000
B1056164437044N00650934EA0352903715000164000000
B1056204437127N00651023EA0352703727000168000000
B1056244437206N00651094EA0354203746000160000000
B1056284437287N00651142EA0355403749000152000000
B1056324437375N00651172EA0354503723000144000000
B1056364437466N00651185EA0354203759000144000000
B1056404437542N00651187EA0357603787000128000000
B1056444437615N00651184EA0358503770000116000000
B1056484437700N00651184EA0357103764000116000000
B1056524437782N00651175EA0357003773000112000000
B1056564437862N00651164EA0357803772000108000000
B1057004437945N00651153EA0356203746000112000000
B1057044438034N00651131EA0354303728000124000000
B1057084438131N00651115EA0352603716000132000000
B1057124438229N00651105EA0351903711000148000000
B1057164438328N00651107EA0351603714000156000000
B1057204438424N00651112EA0352303719000156000000
B1057244438521N00651109EA0352303720000156000000
B1057284438614N00651109EA0353203749000156000000
B1057324438695N00651137EA0356903793000140000000
B1057364438765N00651141EA0359803802000120000000
B1057404438842N00651122EA0360003797000108000000
B1057444438921N00651150EA0360503809000108000000
B1057484438973N00651224EA0361303809000100000000
B1057524439009N00651318EA0360203787000112000000
B1057564439059N00651419EA0358303769000112000000
B1058004439126N00651513EA0356003742000124000000
B1058044439215N00651592EA0353603720000148000000
B1058084439315N00651648EA0352403714000156000000
B1058124439416N00651682EA0351703709000164000000
B1058164439522N00651695EA0350703693000216000000
B1058204439631N00651686EA0349103679000216000000
B1058244439736N00651653EA0348703683000204000000
B1058284439834N00651603EA0349003681000192000000
B1058324439922N00651531EA0348503684000184000000
B1058364439999N00651452EA0349303684000168000000
B1058404440073N00651362EA0348203663000168000000
B1058444440148N00651259EA0345903640000172000000
B1058484440225N00651148EA0344303627000180000000
B1058524440300N00651033EA0343303617000188000000
B1058564440378N00650914EA0341603597000204000000
B1059004440454N00650786EA0340503592000212000000
B1059044440525N00650654EA0339703578000224000000
B1059084440594N00650517EA0338703565000240000000
B1059124440671N00650382EA0336903540000256000000
B1059164440749N00650245EA0335103532000264000000
B1059204440829N00650113EA0333903521000268000000
